{
  "contractName": "FileUtils",
  "abi": [
    {
      "constant": false,
      "inputs": [
        {
          "internalType": "string",
          "name": "file",
          "type": "string"
        },
        {
          "internalType": "address",
          "name": "_user",
          "type": "address"
        },
        {
          "internalType": "string",
          "name": "timestamp",
          "type": "string"
        }
      ],
      "name": "log",
      "outputs": [],
      "payable": false,
      "stateMutability": "nonpayable",
      "type": "function"
    },
    {
      "constant": true,
      "inputs": [
        {
          "internalType": "string",
          "name": "file",
          "type": "string"
        }
      ],
      "name": "getLogs",
      "outputs": [
        {
          "components": [
            {
              "internalType": "address",
              "name": "user",
              "type": "address"
            },
            {
              "internalType": "string",
              "name": "timestamp",
              "type": "string"
            }
          ],
          "internalType": "struct FileUtils.FileLog[]",
          "name": "",
          "type": "tuple[]"
        }
      ],
      "payable": false,
      "stateMutability": "view",
      "type": "function"
    },
    {
      "constant": false,
      "inputs": [
        {
          "internalType": "address",
          "name": "_user",
          "type": "address"
        },
        {
          "internalType": "string",
          "name": "url",
          "type": "string"
        },
        {
          "internalType": "string",
          "name": "name",
          "type": "string"
        },
        {
          "internalType": "string",
          "name": "comment",
          "type": "string"
        }
      ],
      "name": "add",
      "outputs": [],
      "payable": false,
      "stateMutability": "nonpayable",
      "type": "function"
    },
    {
      "constant": true,
      "inputs": [
        {
          "internalType": "address",
          "name": "_user",
          "type": "address"
        },
        {
          "internalType": "string",
          "name": "fileName",
          "type": "string"
        },
        {
          "internalType": "uint256",
          "name": "version",
          "type": "uint256"
        }
      ],
      "name": "starFile",
      "outputs": [],
      "payable": false,
      "stateMutability": "view",
      "type": "function"
    },
    {
      "constant": true,
      "inputs": [
        {
          "internalType": "address",
          "name": "_user",
          "type": "address"
        },
        {
          "internalType": "string",
          "name": "fileName",
          "type": "string"
        },
        {
          "internalType": "uint256",
          "name": "version",
          "type": "uint256"
        },
        {
          "internalType": "string",
          "name": "comment",
          "type": "string"
        }
      ],
      "name": "addComment",
      "outputs": [],
      "payable": false,
      "stateMutability": "view",
      "type": "function"
    },
    {
      "constant": true,
      "inputs": [
        {
          "internalType": "address",
          "name": "_user",
          "type": "address"
        },
        {
          "internalType": "string",
          "name": "fileName",
          "type": "string"
        },
        {
          "internalType": "uint256",
          "name": "version",
          "type": "uint256"
        }
      ],
      "name": "deleteComment",
      "outputs": [],
      "payable": false,
      "stateMutability": "view",
      "type": "function"
    },
    {
      "constant": true,
      "inputs": [
        {
          "internalType": "address",
          "name": "_user",
          "type": "address"
        },
        {
          "internalType": "string",
          "name": "fileName",
          "type": "string"
        },
        {
          "internalType": "uint256",
          "name": "version",
          "type": "uint256"
        }
      ],
      "name": "unStarFile",
      "outputs": [],
      "payable": false,
      "stateMutability": "view",
      "type": "function"
    },
    {
      "constant": true,
      "inputs": [
        {
          "internalType": "address",
          "name": "_user",
          "type": "address"
        }
      ],
      "name": "getFilesForUser",
      "outputs": [
        {
          "components": [
            {
              "internalType": "string",
              "name": "url",
              "type": "string"
            },
            {
              "internalType": "uint256",
              "name": "version",
              "type": "uint256"
            },
            {
              "internalType": "string",
              "name": "name",
              "type": "string"
            },
            {
              "internalType": "bool",
              "name": "isStarred",
              "type": "bool"
            },
            {
              "internalType": "string",
              "name": "comment",
              "type": "string"
            }
          ],
          "internalType": "struct FileUtils.File[]",
          "name": "",
          "type": "tuple[]"
        }
      ],
      "payable": false,
      "stateMutability": "view",
      "type": "function"
    },
    {
      "constant": false,
      "inputs": [
        {
          "internalType": "address",
          "name": "_user",
          "type": "address"
        },
        {
          "internalType": "string",
          "name": "name",
          "type": "string"
        },
        {
          "internalType": "uint256",
          "name": "version",
          "type": "uint256"
        }
      ],
      "name": "deleteFile",
      "outputs": [],
      "payable": false,
      "stateMutability": "nonpayable",
      "type": "function"
    },
    {
      "constant": false,
      "inputs": [
        {
          "internalType": "address",
          "name": "user",
          "type": "address"
        }
      ],
      "name": "allow",
      "outputs": [],
      "payable": false,
      "stateMutability": "nonpayable",
      "type": "function"
    },
    {
      "constant": false,
      "inputs": [
        {
          "internalType": "address",
          "name": "user",
          "type": "address"
        }
      ],
      "name": "disallow",
      "outputs": [],
      "payable": false,
      "stateMutability": "nonpayable",
      "type": "function"
    },
    {
      "constant": true,
      "inputs": [
        {
          "internalType": "address",
          "name": "_user",
          "type": "address"
        }
      ],
      "name": "display",
      "outputs": [
        {
          "internalType": "string[]",
          "name": "",
          "type": "string[]"
        }
      ],
      "payable": false,
      "stateMutability": "view",
      "type": "function"
    },
    {
      "constant": true,
      "inputs": [],
      "name": "shareAccess",
      "outputs": [
        {
          "components": [
            {
              "internalType": "address",
              "name": "user",
              "type": "address"
            },
            {
              "internalType": "bool",
              "name": "access",
              "type": "bool"
            }
          ],
          "internalType": "struct FileUtils.Access[]",
          "name": "",
          "type": "tuple[]"
        }
      ],
      "payable": false,
      "stateMutability": "view",
      "type": "function"
    }
  ],
  "bytecode": "0x608060405234801561001057600080fd5b50613951806100206000396000f3fe608060405234801561001057600080fd5b50600436106100cf5760003560e01c8063b53458c11161008c578063e0e9ad4f11610066578063e0e9ad4f146101fa578063eb39113f14610216578063ebf8fe1114610246578063ff9913e814610262576100cf565b8063b53458c114610190578063bc8bef81146101ac578063d13431cb146101ca576100cf565b80631c0b75e8146100d45780634e35f256146101045780636f971500146101205780637e72f3f51461013c5780639527b19b14610158578063a9ed9cb814610174575b600080fd5b6100ee60048036036100e991908101906130f5565b61027e565b6040516100fb919061364c565b60405180910390f35b61011e60048036036101199190810190612fd1565b6103f3565b005b61013a60048036036101359190810190612f65565b61075b565b005b61015660048036036101519190810190612f65565b610a85565b005b610172600480360361016d9190810190612eac565b610db6565b005b61018e60048036036101899190810190612e83565b6114b9565b005b6101aa60048036036101a59190810190612f65565b6116cb565b005b6101b46119ba565b6040516101c1919061362a565b60405180910390f35b6101e460048036036101df9190810190612e83565b611ac3565b6040516101f1919061366e565b60405180910390f35b610214600480360361020f919081019061306c565b611f72565b005b610230600480360361022b9190810190612e83565b61209a565b60405161023d9190613608565b60405180910390f35b610260600480360361025b9190810190612f65565b6122c0565b005b61027c60048036036102779190810190612e83565b6125ea565b005b606060068260405161029091906135da565b9081526020016040518091039020805480602002602001604051908101604052809291908181526020016000905b828210156103e857838290600052602060002090600202016040518060400160405290816000820160009054906101000a900473ffffffffffffffffffffffffffffffffffffffff1673ffffffffffffffffffffffffffffffffffffffff1673ffffffffffffffffffffffffffffffffffffffff168152602001600182018054600181600116156101000203166002900480601f0160208091040260200160405190810160405280929190818152602001828054600181600116156101000203166002900480156103d05780601f106103a5576101008083540402835291602001916103d0565b820191906000526020600020905b8154815290600101906020018083116103b357829003601f168201915b505050505081525050815260200190600101906102be565b505050509050919050565b6060600360008873ffffffffffffffffffffffffffffffffffffffff1673ffffffffffffffffffffffffffffffffffffffff16815260200190815260200160002086866040516104449291906135c1565b9081526020016040518091039020805480602002602001604051908101604052809291908181526020016000905b828210156106af57838290600052602060002090600502016040518060a0016040529081600082018054600181600116156101000203166002900480601f01602080910402602001604051908101604052809291908181526020018280546001816001161561010002031660029004801561052e5780601f106105035761010080835404028352916020019161052e565b820191906000526020600020905b81548152906001019060200180831161051157829003601f168201915b5050505050815260200160018201548152602001600282018054600181600116156101000203166002900480601f0160208091040260200160405190810160405280929190818152602001828054600181600116156101000203166002900480156105da5780601f106105af576101008083540402835291602001916105da565b820191906000526020600020905b8154815290600101906020018083116105bd57829003601f168201915b505050505081526020016003820160009054906101000a900460ff16151515158152602001600482018054600181600116156101000203166002900480601f0160208091040260200160405190810160405280929190818152602001828054600181600116156101000203166002900480156106975780601f1061066c57610100808354040283529160200191610697565b820191906000526020600020905b81548152906001019060200180831161067a57829003601f168201915b50505050508152505081526020019060010190610472565b50505050905060008090505b815181121561075157848282815181106106d157fe5b60200260200101516020015114156107445783838080601f016020809104026020016040519081016040528093929190818152602001838380828437600081840152601f19601f8201169050808301925050505050505082828151811061073457fe5b6020026020010151608001819052505b80806001019150506106bb565b5050505050505050565b6060600360008673ffffffffffffffffffffffffffffffffffffffff1673ffffffffffffffffffffffffffffffffffffffff16815260200190815260200160002084846040516107ac9291906135c1565b9081526020016040518091039020805480602002602001604051908101604052809291908181526020016000905b82821015610a1757838290600052602060002090600502016040518060a0016040529081600082018054600181600116156101000203166002900480601f0160208091040260200160405190810160405280929190818152602001828054600181600116156101000203166002900480156108965780601f1061086b57610100808354040283529160200191610896565b820191906000526020600020905b81548152906001019060200180831161087957829003601f168201915b5050505050815260200160018201548152602001600282018054600181600116156101000203166002900480601f0160208091040260200160405190810160405280929190818152602001828054600181600116156101000203166002900480156109425780601f1061091757610100808354040283529160200191610942565b820191906000526020600020905b81548152906001019060200180831161092557829003601f168201915b505050505081526020016003820160009054906101000a900460ff16151515158152602001600482018054600181600116156101000203166002900480601f0160208091040260200160405190810160405280929190818152602001828054600181600116156101000203166002900480156109ff5780601f106109d4576101008083540402835291602001916109ff565b820191906000526020600020905b8154815290600101906020018083116109e257829003601f168201915b505050505081525050815260200190600101906107da565b50505050905060008090505b8151811215610a7d5782828281518110610a3957fe5b6020026020010151602001511415610a70576000828281518110610a5957fe5b602002602001015160600190151590811515815250505b8080600101915050610a23565b505050505050565b6060600360008673ffffffffffffffffffffffffffffffffffffffff1673ffffffffffffffffffffffffffffffffffffffff1681526020019081526020016000208484604051610ad69291906135c1565b9081526020016040518091039020805480602002602001604051908101604052809291908181526020016000905b82821015610d4157838290600052602060002090600502016040518060a0016040529081600082018054600181600116156101000203166002900480601f016020809104026020016040519081016040528092919081815260200182805460018160011615610100020316600290048015610bc05780601f10610b9557610100808354040283529160200191610bc0565b820191906000526020600020905b815481529060010190602001808311610ba357829003601f168201915b5050505050815260200160018201548152602001600282018054600181600116156101000203166002900480601f016020809104026020016040519081016040528092919081815260200182805460018160011615610100020316600290048015610c6c5780601f10610c4157610100808354040283529160200191610c6c565b820191906000526020600020905b815481529060010190602001808311610c4f57829003601f168201915b505050505081526020016003820160009054906101000a900460ff16151515158152602001600482018054600181600116156101000203166002900480601f016020809104026020016040519081016040528092919081815260200182805460018160011615610100020316600290048015610d295780601f10610cfe57610100808354040283529160200191610d29565b820191906000526020600020905b815481529060010190602001808311610d0c57829003601f168201915b50505050508152505081526020019060010190610b04565b50505050905060008090505b8151811215610dae5782828281518110610d6357fe5b6020026020010151602001511415610da15760405180602001604052806000815250828281518110610d9157fe5b6020026020010151608001819052505b8080600101915050610d4d565b505050505050565b6000600360008973ffffffffffffffffffffffffffffffffffffffff1673ffffffffffffffffffffffffffffffffffffffff1681526020019081526020016000208585604051610e079291906135c1565b908152602001604051809103902080549050111561108f5760006001600360008a73ffffffffffffffffffffffffffffffffffffffff1673ffffffffffffffffffffffffffffffffffffffff1681526020019081526020016000208686604051610e729291906135c1565b908152602001604051809103902080549050019050600360008973ffffffffffffffffffffffffffffffffffffffff1673ffffffffffffffffffffffffffffffffffffffff1681526020019081526020016000208585604051610ed69291906135c1565b90815260200160405180910390206040518060a0016040528089898080601f016020809104026020016040519081016040528093929190818152602001838380828437600081840152601f19601f82011690508083019250505050505050815260200183815260200187878080601f016020809104026020016040519081016040528093929190818152602001838380828437600081840152601f19601f82011690508083019250505050505050815260200160001515815260200185858080601f016020809104026020016040519081016040528093929190818152602001838380828437600081840152601f19601f82011690508083019250505050505050815250908060018154018082558091505090600182039060005260206000209060050201600090919290919091506000820151816000019080519060200190611021929190612a24565b50602082015181600101556040820151816002019080519060200190611048929190612a24565b5060608201518160030160006101000a81548160ff0219169083151502179055506080820151816004019080519060200190611085929190612a24565b5050505050611293565b600360008873ffffffffffffffffffffffffffffffffffffffff1673ffffffffffffffffffffffffffffffffffffffff16815260200190815260200160002084846040516110de9291906135c1565b90815260200160405180910390206040518060a0016040528088888080601f016020809104026020016040519081016040528093929190818152602001838380828437600081840152601f19601f8201169050808301925050505050505081526020016001815260200186868080601f016020809104026020016040519081016040528093929190818152602001838380828437600081840152601f19601f82011690508083019250505050505050815260200160001515815260200184848080601f016020809104026020016040519081016040528093929190818152602001838380828437600081840152601f19601f8201169050808301925050505050505081525090806001815401808255809150509060018203906000526020600020906005020160009091929091909150600082015181600001908051906020019061122a929190612a24565b50602082015181600101556040820151816002019080519060200190611251929190612a24565b5060608201518160030160006101000a81548160ff021916908315150217905550608082015181600401908051906020019061128e929190612a24565b505050505b6000808873ffffffffffffffffffffffffffffffffffffffff1673ffffffffffffffffffffffffffffffffffffffff16815260200190815260200160002086869091806001815401808255809150509060018203906000526020600020016000909192939091929390919290919250919061130f929190612aa4565b5050600080905060008090505b600160008a73ffffffffffffffffffffffffffffffffffffffff1673ffffffffffffffffffffffffffffffffffffffff168152602001908152602001600020805490508110156114255785856040516020016113799291906135c1565b60405160208183030381529060405280519060200120600160008b73ffffffffffffffffffffffffffffffffffffffff1673ffffffffffffffffffffffffffffffffffffffff16815260200190815260200160002082815481106113d957fe5b906000526020600020016040516020016113f391906135f1565b6040516020818303038152906040528051906020012014156114185760019150611425565b808060010191505061131c565b5060008114156114af57600160008973ffffffffffffffffffffffffffffffffffffffff1673ffffffffffffffffffffffffffffffffffffffff1681526020019081526020016000208585909180600181540180825580915050906001820390600052602060002001600090919293909192939091929091925091906114ac929190612aa4565b50505b5050505050505050565b6000600260003373ffffffffffffffffffffffffffffffffffffffff1673ffffffffffffffffffffffffffffffffffffffff16815260200190815260200160002060008373ffffffffffffffffffffffffffffffffffffffff1673ffffffffffffffffffffffffffffffffffffffff16815260200190815260200160002060006101000a81548160ff02191690831515021790555060008090505b600460003373ffffffffffffffffffffffffffffffffffffffff1673ffffffffffffffffffffffffffffffffffffffff168152602001908152602001600020805490508110156116c7578173ffffffffffffffffffffffffffffffffffffffff16600460003373ffffffffffffffffffffffffffffffffffffffff1673ffffffffffffffffffffffffffffffffffffffff16815260200190815260200160002082815481106115ff57fe5b9060005260206000200160000160009054906101000a900473ffffffffffffffffffffffffffffffffffffffff1673ffffffffffffffffffffffffffffffffffffffff1614156116ba576000600460003373ffffffffffffffffffffffffffffffffffffffff1673ffffffffffffffffffffffffffffffffffffffff168152602001908152602001600020828154811061169557fe5b9060005260206000200160000160146101000a81548160ff0219169083151502179055505b8080600101915050611554565b5050565b6000600360008673ffffffffffffffffffffffffffffffffffffffff1673ffffffffffffffffffffffffffffffffffffffff168152602001908152602001600020848460405161171c9291906135c1565b908152602001604051809103902090506000600182805490500390505b600081126118d1578282828154811061174e57fe5b90600052602060002090600502016001015414156118c3578160018380549050038154811061177957fe5b906000526020600020906005020182828154811061179357fe5b9060005260206000209060050201600082018160000190805460018160011615610100020316600290046117c8929190612b24565b5060018201548160010155600282018160020190805460018160011615610100020316600290046117fa929190612b24565b506003820160009054906101000a900460ff168160030160006101000a81548160ff0219169083151502179055506004820181600401908054600181600116156101000203166002900461184f929190612b24565b509050508180548061185d57fe5b6001900381819060005260206000209060050201600080820160006118829190612bab565b600182016000905560028201600061189a9190612bab565b6003820160006101000a81549060ff02191690556004820160006118be9190612bab565b505090555b808060019003915050611739565b5080600360008773ffffffffffffffffffffffffffffffffffffffff1673ffffffffffffffffffffffffffffffffffffffff16815260200190815260200160002085856040516119229291906135c1565b908152602001604051809103902090805461193e929190612bf3565b506000818054905014156119b357600160008673ffffffffffffffffffffffffffffffffffffffff1673ffffffffffffffffffffffffffffffffffffffff16815260200190815260200160002080548061199457fe5b6001900381819060005260206000200160006119b09190612bab565b90555b5050505050565b6060600460003373ffffffffffffffffffffffffffffffffffffffff1673ffffffffffffffffffffffffffffffffffffffff168152602001908152602001600020805480602002602001604051908101604052809291908181526020016000905b82821015611aba578382906000526020600020016040518060400160405290816000820160009054906101000a900473ffffffffffffffffffffffffffffffffffffffff1673ffffffffffffffffffffffffffffffffffffffff1673ffffffffffffffffffffffffffffffffffffffff1681526020016000820160149054906101000a900460ff16151515158152505081526020019060010190611a1b565b50505050905090565b6060806014604051908082528060200260200182016040528015611b0157816020015b611aee612cfa565b815260200190600190039081611ae65790505b509050600080905060008090505b600160008673ffffffffffffffffffffffffffffffffffffffff1673ffffffffffffffffffffffffffffffffffffffff16815260200190815260200160002080549050811015611f67576060600160008773ffffffffffffffffffffffffffffffffffffffff1673ffffffffffffffffffffffffffffffffffffffff1681526020019081526020016000208281548110611ba557fe5b906000526020600020018054600181600116156101000203166002900480601f016020809104026020016040519081016040528092919081815260200182805460018160011615610100020316600290048015611c435780601f10611c1857610100808354040283529160200191611c43565b820191906000526020600020905b815481529060010190602001808311611c2657829003601f168201915b505050505090506060600360008873ffffffffffffffffffffffffffffffffffffffff1673ffffffffffffffffffffffffffffffffffffffff16815260200190815260200160002082604051611c9991906135da565b9081526020016040518091039020805480602002602001604051908101604052809291908181526020016000905b82821015611f0457838290600052602060002090600502016040518060a0016040529081600082018054600181600116156101000203166002900480601f016020809104026020016040519081016040528092919081815260200182805460018160011615610100020316600290048015611d835780601f10611d5857610100808354040283529160200191611d83565b820191906000526020600020905b815481529060010190602001808311611d6657829003601f168201915b5050505050815260200160018201548152602001600282018054600181600116156101000203166002900480601f016020809104026020016040519081016040528092919081815260200182805460018160011615610100020316600290048015611e2f5780601f10611e0457610100808354040283529160200191611e2f565b820191906000526020600020905b815481529060010190602001808311611e1257829003601f168201915b505050505081526020016003820160009054906101000a900460ff16151515158152602001600482018054600181600116156101000203166002900480601f016020809104026020016040519081016040528092919081815260200182805460018160011615610100020316600290048015611eec5780601f10611ec157610100808354040283529160200191611eec565b820191906000526020600020905b815481529060010190602001808311611ecf57829003601f168201915b50505050508152505081526020019060010190611cc7565b50505050905060008090505b8151811015611f5757818181518110611f2557fe5b6020026020010151868681518110611f3957fe5b60200260200101819052506001850194508080600101915050611f10565b5050508080600101915050611b0f565b508192505050919050565b60068585604051611f849291906135c1565b908152602001604051809103902060405180604001604052808573ffffffffffffffffffffffffffffffffffffffff16815260200184848080601f016020809104026020016040519081016040528093929190818152602001838380828437600081840152601f19601f820116905080830192505050505050508152509080600181540180825580915050906001820390600052602060002090600202016000909192909190915060008201518160000160006101000a81548173ffffffffffffffffffffffffffffffffffffffff021916908373ffffffffffffffffffffffffffffffffffffffff160217905550602082015181600101908051906020019061208f929190612a24565b505050505050505050565b60603373ffffffffffffffffffffffffffffffffffffffff168273ffffffffffffffffffffffffffffffffffffffff16148061215c5750600260008373ffffffffffffffffffffffffffffffffffffffff1673ffffffffffffffffffffffffffffffffffffffff16815260200190815260200160002060003373ffffffffffffffffffffffffffffffffffffffff1673ffffffffffffffffffffffffffffffffffffffff16815260200190815260200160002060009054906101000a900460ff165b61219b576040517f08c379a000000000000000000000000000000000000000000000000000000000815260040161219290613690565b60405180910390fd5b6000808373ffffffffffffffffffffffffffffffffffffffff1673ffffffffffffffffffffffffffffffffffffffff168152602001908152602001600020805480602002602001604051908101604052809291908181526020016000905b828210156122b5578382906000526020600020018054600181600116156101000203166002900480601f0160208091040260200160405190810160405280929190818152602001828054600181600116156101000203166002900480156122a15780601f10612276576101008083540402835291602001916122a1565b820191906000526020600020905b81548152906001019060200180831161228457829003601f168201915b5050505050815260200190600101906121f9565b505050509050919050565b6060600360008673ffffffffffffffffffffffffffffffffffffffff1673ffffffffffffffffffffffffffffffffffffffff16815260200190815260200160002084846040516123119291906135c1565b9081526020016040518091039020805480602002602001604051908101604052809291908181526020016000905b8282101561257c57838290600052602060002090600502016040518060a0016040529081600082018054600181600116156101000203166002900480601f0160208091040260200160405190810160405280929190818152602001828054600181600116156101000203166002900480156123fb5780601f106123d0576101008083540402835291602001916123fb565b820191906000526020600020905b8154815290600101906020018083116123de57829003601f168201915b5050505050815260200160018201548152602001600282018054600181600116156101000203166002900480601f0160208091040260200160405190810160405280929190818152602001828054600181600116156101000203166002900480156124a75780601f1061247c576101008083540402835291602001916124a7565b820191906000526020600020905b81548152906001019060200180831161248a57829003601f168201915b505050505081526020016003820160009054906101000a900460ff16151515158152602001600482018054600181600116156101000203166002900480601f0160208091040260200160405190810160405280929190818152602001828054600181600116156101000203166002900480156125645780601f1061253957610100808354040283529160200191612564565b820191906000526020600020905b81548152906001019060200180831161254757829003601f168201915b5050505050815250508152602001906001019061233f565b50505050905060008090505b81518112156125e2578282828151811061259e57fe5b60200260200101516020015114156125d55760018282815181106125be57fe5b602002602001015160600190151590811515815250505b8080600101915050612588565b505050505050565b6001600260003373ffffffffffffffffffffffffffffffffffffffff1673ffffffffffffffffffffffffffffffffffffffff16815260200190815260200160002060008373ffffffffffffffffffffffffffffffffffffffff1673ffffffffffffffffffffffffffffffffffffffff16815260200190815260200160002060006101000a81548160ff021916908315150217905550600560003373ffffffffffffffffffffffffffffffffffffffff1673ffffffffffffffffffffffffffffffffffffffff16815260200190815260200160002060008273ffffffffffffffffffffffffffffffffffffffff1673ffffffffffffffffffffffffffffffffffffffff16815260200190815260200160002060009054906101000a900460ff161561288d5760008090505b600460003373ffffffffffffffffffffffffffffffffffffffff1673ffffffffffffffffffffffffffffffffffffffff16815260200190815260200160002080549050811015612887578173ffffffffffffffffffffffffffffffffffffffff16600460003373ffffffffffffffffffffffffffffffffffffffff1673ffffffffffffffffffffffffffffffffffffffff16815260200190815260200160002082815481106127bf57fe5b9060005260206000200160000160009054906101000a900473ffffffffffffffffffffffffffffffffffffffff1673ffffffffffffffffffffffffffffffffffffffff16141561287a576001600460003373ffffffffffffffffffffffffffffffffffffffff1673ffffffffffffffffffffffffffffffffffffffff168152602001908152602001600020828154811061285557fe5b9060005260206000200160000160146101000a81548160ff0219169083151502179055505b8080600101915050612714565b50612a21565b600460003373ffffffffffffffffffffffffffffffffffffffff1673ffffffffffffffffffffffffffffffffffffffff16815260200190815260200160002060405180604001604052808373ffffffffffffffffffffffffffffffffffffffff1681526020016001151581525090806001815401808255809150509060018203906000526020600020016000909192909190915060008201518160000160006101000a81548173ffffffffffffffffffffffffffffffffffffffff021916908373ffffffffffffffffffffffffffffffffffffffff16021790555060208201518160000160146101000a81548160ff0219169083151502179055505050506001600560003373ffffffffffffffffffffffffffffffffffffffff1673ffffffffffffffffffffffffffffffffffffffff16815260200190815260200160002060008373ffffffffffffffffffffffffffffffffffffffff1673ffffffffffffffffffffffffffffffffffffffff16815260200190815260200160002060006101000a81548160ff0219169083151502179055505b50565b828054600181600116156101000203166002900490600052602060002090601f016020900481019282601f10612a6557805160ff1916838001178555612a93565b82800160010185558215612a93579182015b82811115612a92578251825591602001919060010190612a77565b5b509050612aa09190612d2b565b5090565b828054600181600116156101000203166002900490600052602060002090601f016020900481019282601f10612ae557803560ff1916838001178555612b13565b82800160010185558215612b13579182015b82811115612b12578235825591602001919060010190612af7565b5b509050612b209190612d2b565b5090565b828054600181600116156101000203166002900490600052602060002090601f016020900481019282601f10612b5d5780548555612b9a565b82800160010185558215612b9a57600052602060002091601f016020900482015b82811115612b99578254825591600101919060010190612b7e565b5b509050612ba79190612d2b565b5090565b50805460018160011615610100020316600290046000825580601f10612bd15750612bf0565b601f016020900490600052602060002090810190612bef9190612d2b565b5b50565b828054828255906000526020600020906005028101928215612ce95760005260206000209160050282015b82811115612ce857828260008201816000019080546001816001161561010002031660029004612c4f929190612b24565b506001820154816001015560028201816002019080546001816001161561010002031660029004612c81929190612b24565b506003820160009054906101000a900460ff168160030160006101000a81548160ff02191690831515021790555060048201816004019080546001816001161561010002031660029004612cd6929190612b24565b50505091600501919060050190612c1e565b5b509050612cf69190612d50565b5090565b6040518060a00160405280606081526020016000815260200160608152602001600015158152602001606081525090565b612d4d91905b80821115612d49576000816000905550600101612d31565b5090565b90565b612db891905b80821115612db45760008082016000612d6f9190612bab565b6001820160009055600282016000612d879190612bab565b6003820160006101000a81549060ff0219169055600482016000612dab9190612bab565b50600501612d56565b5090565b90565b600081359050612dca816138e0565b92915050565b60008083601f840112612de257600080fd5b8235905067ffffffffffffffff811115612dfb57600080fd5b602083019150836001820283011115612e1357600080fd5b9250929050565b600082601f830112612e2b57600080fd5b8135612e3e612e39826136dd565b6136b0565b91508082526020830160208301858383011115612e5a57600080fd5b612e6583828461388d565b50505092915050565b600081359050612e7d816138f7565b92915050565b600060208284031215612e9557600080fd5b6000612ea384828501612dbb565b91505092915050565b60008060008060008060006080888a031215612ec757600080fd5b6000612ed58a828b01612dbb565b975050602088013567ffffffffffffffff811115612ef257600080fd5b612efe8a828b01612dd0565b9650965050604088013567ffffffffffffffff811115612f1d57600080fd5b612f298a828b01612dd0565b9450945050606088013567ffffffffffffffff811115612f4857600080fd5b612f548a828b01612dd0565b925092505092959891949750929550565b60008060008060608587031215612f7b57600080fd5b6000612f8987828801612dbb565b945050602085013567ffffffffffffffff811115612fa657600080fd5b612fb287828801612dd0565b93509350506040612fc587828801612e6e565b91505092959194509250565b60008060008060008060808789031215612fea57600080fd5b6000612ff889828a01612dbb565b965050602087013567ffffffffffffffff81111561301557600080fd5b61302189828a01612dd0565b9550955050604061303489828a01612e6e565b935050606087013567ffffffffffffffff81111561305157600080fd5b61305d89828a01612dd0565b92509250509295509295509295565b60008060008060006060868803121561308457600080fd5b600086013567ffffffffffffffff81111561309e57600080fd5b6130aa88828901612dd0565b955095505060206130bd88828901612dbb565b935050604086013567ffffffffffffffff8111156130da57600080fd5b6130e688828901612dd0565b92509250509295509295909350565b60006020828403121561310757600080fd5b600082013567ffffffffffffffff81111561312157600080fd5b61312d84828501612e1a565b91505092915050565b600061314283836133bb565b905092915050565b600061315683836134c2565b60408301905092915050565b600061316e83836134f1565b905092915050565b6000613182838361352e565b905092915050565b61319381613845565b82525050565b60006131a48261375e565b6131ae81856137d4565b9350836020820285016131c085613709565b8060005b858110156131fc57848403895281516131dd8582613136565b94506131e8836137a0565b925060208a019950506001810190506131c4565b50829750879550505050505092915050565b600061321982613769565b61322381856137e5565b935061322e83613719565b8060005b8381101561325f578151613246888261314a565b9750613251836137ad565b925050600181019050613232565b5085935050505092915050565b600061327782613774565b61328181856137f6565b93508360208202850161329385613729565b8060005b858110156132cf57848403895281516132b08582613162565b94506132bb836137ba565b925060208a01995050600181019050613297565b50829750879550505050505092915050565b60006132ec8261377f565b6132f68185613807565b93508360208202850161330885613739565b8060005b8581101561334457848403895281516133258582613176565b9450613330836137c7565b925060208a0199505060018101905061330c565b50829750879550505050505092915050565b61335f81613857565b82525050565b6000613371838561383a565b935061337e83858461388d565b82840190509392505050565b600061339582613795565b61339f818561383a565b93506133af81856020860161389c565b80840191505092915050565b60006133c68261378a565b6133d08185613818565b93506133e081856020860161389c565b6133e9816138cf565b840191505092915050565b60008154600181166000811461341157600181146134365761347a565b607f6002830416613422818761383a565b955060ff198316865280860193505061347a565b60028204613444818761383a565b955061344f85613749565b60005b8281101561347157815481890152600182019150602081019050613452565b82880195505050505b505092915050565b600061348f601583613829565b91507f596f7520646f6e277420686176652061636365737300000000000000000000006000830152602082019050919050565b6040820160008201516134d8600085018261318a565b5060208201516134eb6020850182613356565b50505050565b6000604083016000830151613509600086018261318a565b506020830151848203602086015261352182826133bb565b9150508091505092915050565b600060a083016000830151848203600086015261354b82826133bb565b915050602083015161356060208601826135b2565b506040830151848203604086015261357882826133bb565b915050606083015161358d6060860182613356565b50608083015184820360808601526135a582826133bb565b9150508091505092915050565b6135bb81613883565b82525050565b60006135ce828486613365565b91508190509392505050565b60006135e6828461338a565b915081905092915050565b60006135fd82846133f4565b915081905092915050565b600060208201905081810360008301526136228184613199565b905092915050565b60006020820190508181036000830152613644818461320e565b905092915050565b60006020820190508181036000830152613666818461326c565b905092915050565b6000602082019050818103600083015261368881846132e1565b905092915050565b600060208201905081810360008301526136a981613482565b9050919050565b6000604051905081810181811067ffffffffffffffff821117156136d357600080fd5b8060405250919050565b600067ffffffffffffffff8211156136f457600080fd5b601f19601f8301169050602081019050919050565b6000819050602082019050919050565b6000819050602082019050919050565b6000819050602082019050919050565b6000819050602082019050919050565b60008190508160005260206000209050919050565b600081519050919050565b600081519050919050565b600081519050919050565b600081519050919050565b600081519050919050565b600081519050919050565b6000602082019050919050565b6000602082019050919050565b6000602082019050919050565b6000602082019050919050565b600082825260208201905092915050565b600082825260208201905092915050565b600082825260208201905092915050565b600082825260208201905092915050565b600082825260208201905092915050565b600082825260208201905092915050565b600081905092915050565b600061385082613863565b9050919050565b60008115159050919050565b600073ffffffffffffffffffffffffffffffffffffffff82169050919050565b6000819050919050565b82818337600083830152505050565b60005b838110156138ba57808201518184015260208101905061389f565b838111156138c9576000848401525b50505050565b6000601f19601f8301169050919050565b6138e981613845565b81146138f457600080fd5b50565b61390081613883565b811461390b57600080fd5b5056fea365627a7a7231582099a0e26452b7b51adca7fdb9c49f311f5bcb9bf7fc141828004a7b3f67006b0d6c6578706572696d656e74616cf564736f6c63430005100040",
  "source": "// SPDX-License-Identifier: GPL-3.0\r\n\r\npragma solidity >=0.4.21 <0.6.0;\r\n\r\npragma experimental ABIEncoderV2;\r\n\r\ncontract FileUtils {\r\n\r\n struct File{\r\n    string url;\r\n    uint version;\r\n    string name;\r\n    bool isStarred;\r\n    string comment;\r\n }\r\n  \r\n  struct Access{\r\n     address user; \r\n     bool access; \r\n  }\r\n\r\n  struct FileLog{\r\n      address user;\r\n      string timestamp;\r\n  }\r\n  mapping(address=>string[]) fileUrls;\r\n  mapping(address=>string[]) fileNames;\r\n  mapping(address=>mapping(address=>bool)) trackOwner;\r\n  mapping(address=>mapping(string=>File[])) filesMapping;\r\n  mapping(address=>Access[]) accessList;\r\n  mapping(address=>mapping(address=>bool)) lastState;\r\n  mapping(string=>FileLog[]) fileLogs;\r\n\r\n\r\n  function log(string calldata file, address _user, string calldata timestamp) external{\r\n      fileLogs[file].push(FileLog(_user, timestamp));\r\n  }\r\n\r\n  function getLogs(string memory file) public view returns(FileLog[] memory){\r\n      return fileLogs[file];\r\n  }\r\n\r\n  function add(address _user,string calldata url, string calldata name, string calldata comment) external {\r\n      if(filesMapping[_user][name].length > 0){\r\n          uint version = filesMapping[_user][name].length + 1;\r\n          filesMapping[_user][name].push(File(url, version, name, false, comment));\r\n      }else{\r\n        filesMapping[_user][name].push(File(url, 1, name, false, comment));\r\n      }\r\n        fileUrls[_user].push(url);\r\n\r\n        uint flag=0;\r\n\r\n        for(uint i=0; i<fileNames[_user].length;i++){\r\n            if(keccak256(abi.encodePacked(fileNames[_user][i]))==keccak256(abi.encodePacked(name))){\r\n                flag=1;\r\n                break;\r\n            }\r\n        }\r\n        if(flag==0)\r\n             fileNames[_user].push(name);\r\n  }\r\n\r\n  function starFile(address _user, string calldata fileName, uint version) external view {\r\n         File[] memory fileList = filesMapping[_user][fileName];\r\n           for (int i = 0; i < int(fileList.length); i++) {\r\n              if (fileList[uint(i)].version == version) {\r\n                  fileList[uint(i)].isStarred=true;\r\n              }\r\n           }\r\n  }\r\n\r\n    function addComment(address _user, string calldata fileName, uint version, string calldata comment) external view {\r\n         File[] memory fileList = filesMapping[_user][fileName];\r\n           for (int i = 0; i < int(fileList.length); i++) {\r\n              if (fileList[uint(i)].version == version) {\r\n                  fileList[uint(i)].comment=comment;\r\n              }\r\n           }\r\n     }\r\n\r\n    function deleteComment(address _user, string calldata fileName, uint version) external view {\r\n         File[] memory fileList = filesMapping[_user][fileName];\r\n           for (int i = 0; i < int(fileList.length); i++) {\r\n              if (fileList[uint(i)].version == version) {\r\n                  fileList[uint(i)].comment=\"\";\r\n              }\r\n           }\r\n     }\r\n\r\n\r\n  function unStarFile(address _user, string calldata fileName, uint version) external view{\r\n          File[] memory fileList = filesMapping[_user][fileName];\r\n           for (int i = 0; i < int(fileList.length); i++) {\r\n              if (fileList[uint(i)].version == version) {\r\n                  fileList[uint(i)].isStarred=false;\r\n              }\r\n           }\r\n  }\r\n\r\n  function getFilesForUser(address _user) public view returns(File[]  memory){\r\n      File[] memory fileList = new File[](20);\r\n      uint index=0;\r\n\r\n      for(uint i=0; i<fileNames[_user].length;i++){\r\n          string memory name = fileNames[_user][i];\r\n          File[] memory tempList = filesMapping[_user][name];\r\n          for(uint j=0; j<tempList.length;j++){\r\n            fileList[index]= tempList[j];\r\n            index=index+1;\r\n          }\r\n      }\r\n\r\n    return fileList;\r\n  }\r\n\r\n   function deleteFile(address _user, string calldata name, uint version) external {\r\n         File[] storage fileList = filesMapping[_user][name];\r\n             for (int i = int(fileList.length) - 1; i >= 0; i--) {\r\n              if (fileList[uint(i)].version == version) {\r\n                 fileList[uint(i)] = fileList[fileList.length - 1];\r\n                 fileList.pop();\r\n             }\r\n         }\r\n         filesMapping[_user][name]=fileList;\r\n         if(fileList.length==0){\r\n             fileNames[_user].pop();\r\n         }\r\n   }\r\n\r\n  function allow(address user) external {\r\n      trackOwner[msg.sender][user]=true; \r\n      if(lastState[msg.sender][user]){\r\n         for(uint i=0;i<accessList[msg.sender].length;i++){\r\n             if(accessList[msg.sender][i].user==user){\r\n                  accessList[msg.sender][i].access=true; \r\n             }\r\n         }\r\n      }else{\r\n          accessList[msg.sender].push(Access(user,true));  \r\n          lastState[msg.sender][user]=true;  \r\n      }\r\n    \r\n  }\r\n  function disallow(address user) public{\r\n      trackOwner[msg.sender][user]=false;\r\n      for(uint i=0;i<accessList[msg.sender].length;i++){\r\n          if(accessList[msg.sender][i].user==user){ \r\n              accessList[msg.sender][i].access=false;  \r\n          }\r\n      }\r\n  }\r\n\r\n  function display(address _user) external view returns(string[] memory){\r\n      require(_user==msg.sender || trackOwner[_user][msg.sender],\"You don't have access\");\r\n      return fileUrls[_user];\r\n  }\r\n\r\n  function shareAccess() public view returns(Access[] memory){\r\n      return accessList[msg.sender];\r\n  }\r\n}",
  "sourcePath": "C:\\Users\\atharvakaranje\\Desktop\\CPSC 559 Final Project\\src\\contracts\\FileUtils.sol",
  "compiler": {
    "name": "solc",
    "version": "0.5.16+commit.9c3226ce.Emscripten.clang"
  },
  "schemaVersion": "3.4.11",
  "updatedAt": "2023-05-06T23:58:19.500Z",
  "networkType": "ethereum",
  "devdoc": {
    "methods": {}
  },
  "userdoc": {
    "methods": {}
  }
}