{
  "contractName": "FileAccess",
  "abi": [
    {
      "constant": false,
      "inputs": [
        {
          "internalType": "address",
          "name": "_user",
          "type": "address"
        },
        {
          "internalType": "string",
          "name": "url",
          "type": "string"
        }
      ],
      "name": "add",
      "outputs": [],
      "payable": false,
      "stateMutability": "nonpayable",
      "type": "function"
    },
    {
      "constant": false,
      "inputs": [
        {
          "internalType": "address",
          "name": "user",
          "type": "address"
        }
      ],
      "name": "allow",
      "outputs": [],
      "payable": false,
      "stateMutability": "nonpayable",
      "type": "function"
    },
    {
      "constant": false,
      "inputs": [
        {
          "internalType": "address",
          "name": "user",
          "type": "address"
        }
      ],
      "name": "disallow",
      "outputs": [],
      "payable": false,
      "stateMutability": "nonpayable",
      "type": "function"
    },
    {
      "constant": true,
      "inputs": [
        {
          "internalType": "address",
          "name": "_user",
          "type": "address"
        }
      ],
      "name": "display",
      "outputs": [
        {
          "internalType": "string[]",
          "name": "",
          "type": "string[]"
        }
      ],
      "payable": false,
      "stateMutability": "view",
      "type": "function"
    },
    {
      "constant": true,
      "inputs": [],
      "name": "shareAccess",
      "outputs": [
        {
          "components": [
            {
              "internalType": "address",
              "name": "user",
              "type": "address"
            },
            {
              "internalType": "bool",
              "name": "access",
              "type": "bool"
            }
          ],
          "internalType": "struct FileAccess.Access[]",
          "name": "",
          "type": "tuple[]"
        }
      ],
      "payable": false,
      "stateMutability": "view",
      "type": "function"
    }
  ],
  "bytecode": "0x608060405234801561001057600080fd5b50611024806100206000396000f3fe608060405234801561001057600080fd5b50600436106100575760003560e01c806336d6da551461005c578063a9ed9cb814610078578063bc8bef8114610094578063eb39113f146100b2578063ff9913e8146100e2575b600080fd5b61007660048036036100719190810190610c28565b6100fe565b005b610092600480360361008d9190810190610bff565b610181565b005b61009c610393565b6040516100a99190610e67565b60405180910390f35b6100cc60048036036100c79190810190610bff565b61049c565b6040516100d99190610e45565b60405180910390f35b6100fc60048036036100f79190810190610bff565b6106c2565b005b6000808473ffffffffffffffffffffffffffffffffffffffff1673ffffffffffffffffffffffffffffffffffffffff16815260200190815260200160002082829091806001815401808255809150509060018203906000526020600020016000909192939091929390919290919250919061017a929190610afb565b5050505050565b6000600160003373ffffffffffffffffffffffffffffffffffffffff1673ffffffffffffffffffffffffffffffffffffffff16815260200190815260200160002060008373ffffffffffffffffffffffffffffffffffffffff1673ffffffffffffffffffffffffffffffffffffffff16815260200190815260200160002060006101000a81548160ff02191690831515021790555060008090505b600260003373ffffffffffffffffffffffffffffffffffffffff1673ffffffffffffffffffffffffffffffffffffffff1681526020019081526020016000208054905081101561038f578173ffffffffffffffffffffffffffffffffffffffff16600260003373ffffffffffffffffffffffffffffffffffffffff1673ffffffffffffffffffffffffffffffffffffffff16815260200190815260200160002082815481106102c757fe5b9060005260206000200160000160009054906101000a900473ffffffffffffffffffffffffffffffffffffffff1673ffffffffffffffffffffffffffffffffffffffff161415610382576000600260003373ffffffffffffffffffffffffffffffffffffffff1673ffffffffffffffffffffffffffffffffffffffff168152602001908152602001600020828154811061035d57fe5b9060005260206000200160000160146101000a81548160ff0219169083151502179055505b808060010191505061021c565b5050565b6060600260003373ffffffffffffffffffffffffffffffffffffffff1673ffffffffffffffffffffffffffffffffffffffff168152602001908152602001600020805480602002602001604051908101604052809291908181526020016000905b82821015610493578382906000526020600020016040518060400160405290816000820160009054906101000a900473ffffffffffffffffffffffffffffffffffffffff1673ffffffffffffffffffffffffffffffffffffffff1673ffffffffffffffffffffffffffffffffffffffff1681526020016000820160149054906101000a900460ff161515151581525050815260200190600101906103f4565b50505050905090565b60603373ffffffffffffffffffffffffffffffffffffffff168273ffffffffffffffffffffffffffffffffffffffff16148061055e5750600160008373ffffffffffffffffffffffffffffffffffffffff1673ffffffffffffffffffffffffffffffffffffffff16815260200190815260200160002060003373ffffffffffffffffffffffffffffffffffffffff1673ffffffffffffffffffffffffffffffffffffffff16815260200190815260200160002060009054906101000a900460ff165b61059d576040517f08c379a000000000000000000000000000000000000000000000000000000000815260040161059490610e89565b60405180910390fd5b6000808373ffffffffffffffffffffffffffffffffffffffff1673ffffffffffffffffffffffffffffffffffffffff168152602001908152602001600020805480602002602001604051908101604052809291908181526020016000905b828210156106b7578382906000526020600020018054600181600116156101000203166002900480601f0160208091040260200160405190810160405280929190818152602001828054600181600116156101000203166002900480156106a35780601f10610678576101008083540402835291602001916106a3565b820191906000526020600020905b81548152906001019060200180831161068657829003601f168201915b5050505050815260200190600101906105fb565b505050509050919050565b60018060003373ffffffffffffffffffffffffffffffffffffffff1673ffffffffffffffffffffffffffffffffffffffff16815260200190815260200160002060008373ffffffffffffffffffffffffffffffffffffffff1673ffffffffffffffffffffffffffffffffffffffff16815260200190815260200160002060006101000a81548160ff021916908315150217905550600360003373ffffffffffffffffffffffffffffffffffffffff1673ffffffffffffffffffffffffffffffffffffffff16815260200190815260200160002060008273ffffffffffffffffffffffffffffffffffffffff1673ffffffffffffffffffffffffffffffffffffffff16815260200190815260200160002060009054906101000a900460ff16156109645760008090505b600260003373ffffffffffffffffffffffffffffffffffffffff1673ffffffffffffffffffffffffffffffffffffffff1681526020019081526020016000208054905081101561095e578173ffffffffffffffffffffffffffffffffffffffff16600260003373ffffffffffffffffffffffffffffffffffffffff1673ffffffffffffffffffffffffffffffffffffffff168152602001908152602001600020828154811061089657fe5b9060005260206000200160000160009054906101000a900473ffffffffffffffffffffffffffffffffffffffff1673ffffffffffffffffffffffffffffffffffffffff161415610951576001600260003373ffffffffffffffffffffffffffffffffffffffff1673ffffffffffffffffffffffffffffffffffffffff168152602001908152602001600020828154811061092c57fe5b9060005260206000200160000160146101000a81548160ff0219169083151502179055505b80806001019150506107eb565b50610af8565b600260003373ffffffffffffffffffffffffffffffffffffffff1673ffffffffffffffffffffffffffffffffffffffff16815260200190815260200160002060405180604001604052808373ffffffffffffffffffffffffffffffffffffffff1681526020016001151581525090806001815401808255809150509060018203906000526020600020016000909192909190915060008201518160000160006101000a81548173ffffffffffffffffffffffffffffffffffffffff021916908373ffffffffffffffffffffffffffffffffffffffff16021790555060208201518160000160146101000a81548160ff0219169083151502179055505050506001600360003373ffffffffffffffffffffffffffffffffffffffff1673ffffffffffffffffffffffffffffffffffffffff16815260200190815260200160002060008373ffffffffffffffffffffffffffffffffffffffff1673ffffffffffffffffffffffffffffffffffffffff16815260200190815260200160002060006101000a81548160ff0219169083151502179055505b50565b828054600181600116156101000203166002900490600052602060002090601f016020900481019282601f10610b3c57803560ff1916838001178555610b6a565b82800160010185558215610b6a579182015b82811115610b69578235825591602001919060010190610b4e565b5b509050610b779190610b7b565b5090565b610b9d91905b80821115610b99576000816000905550600101610b81565b5090565b90565b600081359050610baf81610fca565b92915050565b60008083601f840112610bc757600080fd5b8235905067ffffffffffffffff811115610be057600080fd5b602083019150836001820283011115610bf857600080fd5b9250929050565b600060208284031215610c1157600080fd5b6000610c1f84828501610ba0565b91505092915050565b600080600060408486031215610c3d57600080fd5b6000610c4b86828701610ba0565b935050602084013567ffffffffffffffff811115610c6857600080fd5b610c7486828701610bb5565b92509250509250925092565b6000610c8c8383610d9d565b905092915050565b6000610ca08383610e16565b60408301905092915050565b610cb581610f48565b82525050565b6000610cc682610ec9565b610cd08185610f04565b935083602082028501610ce285610ea9565b8060005b85811015610d1e5784840389528151610cff8582610c80565b9450610d0a83610eea565b925060208a01995050600181019050610ce6565b50829750879550505050505092915050565b6000610d3b82610ed4565b610d458185610f15565b9350610d5083610eb9565b8060005b83811015610d81578151610d688882610c94565b9750610d7383610ef7565b925050600181019050610d54565b5085935050505092915050565b610d9781610f5a565b82525050565b6000610da882610edf565b610db28185610f26565b9350610dc2818560208601610f86565b610dcb81610fb9565b840191505092915050565b6000610de3601583610f37565b91507f596f7520646f6e277420686176652061636365737300000000000000000000006000830152602082019050919050565b604082016000820151610e2c6000850182610cac565b506020820151610e3f6020850182610d8e565b50505050565b60006020820190508181036000830152610e5f8184610cbb565b905092915050565b60006020820190508181036000830152610e818184610d30565b905092915050565b60006020820190508181036000830152610ea281610dd6565b9050919050565b6000819050602082019050919050565b6000819050602082019050919050565b600081519050919050565b600081519050919050565b600081519050919050565b6000602082019050919050565b6000602082019050919050565b600082825260208201905092915050565b600082825260208201905092915050565b600082825260208201905092915050565b600082825260208201905092915050565b6000610f5382610f66565b9050919050565b60008115159050919050565b600073ffffffffffffffffffffffffffffffffffffffff82169050919050565b60005b83811015610fa4578082015181840152602081019050610f89565b83811115610fb3576000848401525b50505050565b6000601f19601f8301169050919050565b610fd381610f48565b8114610fde57600080fd5b5056fea365627a7a72315820a4dca8555ce2e5289a2402a6ae52c0828598deb7800fdccc066da6c218e01f4e6c6578706572696d656e74616cf564736f6c63430005100040",
  "source": "// SPDX-License-Identifier: GPL-3.0\r\n\r\npragma solidity >=0.4.21 <0.6.0;\r\n\r\npragma experimental ABIEncoderV2;\r\ncontract FileAccess {\r\n  \r\n  struct Access{\r\n     address user; \r\n     bool access; //true or false\r\n  }\r\n  mapping(address=>string[]) value;\r\n  mapping(address=>mapping(address=>bool)) ownership;\r\n  mapping(address=>Access[]) accessList;\r\n  mapping(address=>mapping(address=>bool)) previousData;\r\n\r\n  function add(address _user,string calldata url) external {\r\n      value[_user].push(url);\r\n  }\r\n  function allow(address user) external {//def\r\n      ownership[msg.sender][user]=true; \r\n      if(previousData[msg.sender][user]){\r\n         for(uint i=0;i<accessList[msg.sender].length;i++){\r\n             if(accessList[msg.sender][i].user==user){\r\n                  accessList[msg.sender][i].access=true; \r\n             }\r\n         }\r\n      }else{\r\n          accessList[msg.sender].push(Access(user,true));  \r\n          previousData[msg.sender][user]=true;  \r\n      }\r\n    \r\n  }\r\n  function disallow(address user) public{\r\n      ownership[msg.sender][user]=false;\r\n      for(uint i=0;i<accessList[msg.sender].length;i++){\r\n          if(accessList[msg.sender][i].user==user){ \r\n              accessList[msg.sender][i].access=false;  \r\n          }\r\n      }\r\n  }\r\n\r\n  function display(address _user) external view returns(string[] memory){\r\n      require(_user==msg.sender || ownership[_user][msg.sender],\"You don't have access\");\r\n      return value[_user];\r\n  }\r\n\r\n  function shareAccess() public view returns(Access[] memory){\r\n      return accessList[msg.sender];\r\n  }\r\n}",
  "sourcePath": "C:\\Users\\atharvakaranje\\Desktop\\CPSC 559 Final Project\\src\\contracts\\FileAccess.sol",
  "compiler": {
    "name": "solc",
    "version": "0.5.16+commit.9c3226ce.Emscripten.clang"
  },
  "schemaVersion": "3.4.11",
  "updatedAt": "2023-04-30T06:25:40.562Z",
  "devdoc": {
    "methods": {}
  },
  "userdoc": {
    "methods": {}
  }
}