{
  "contractName": "FileUtils",
  "abi": [
    {
      "constant": false,
      "inputs": [
        {
          "internalType": "string",
          "name": "file",
          "type": "string"
        },
        {
          "internalType": "address",
          "name": "_user",
          "type": "address"
        },
        {
          "internalType": "string",
          "name": "timestamp",
          "type": "string"
        }
      ],
      "name": "log",
      "outputs": [],
      "payable": false,
      "stateMutability": "nonpayable",
      "type": "function"
    },
    {
      "constant": true,
      "inputs": [
        {
          "internalType": "string",
          "name": "file",
          "type": "string"
        }
      ],
      "name": "getLogs",
      "outputs": [
        {
          "components": [
            {
              "internalType": "address",
              "name": "user",
              "type": "address"
            },
            {
              "internalType": "string",
              "name": "timestamp",
              "type": "string"
            }
          ],
          "internalType": "struct FileUtils.FileLog[]",
          "name": "",
          "type": "tuple[]"
        }
      ],
      "payable": false,
      "stateMutability": "view",
      "type": "function"
    },
    {
      "constant": false,
      "inputs": [
        {
          "internalType": "address",
          "name": "_user",
          "type": "address"
        },
        {
          "internalType": "string",
          "name": "url",
          "type": "string"
        },
        {
          "internalType": "string",
          "name": "name",
          "type": "string"
        },
        {
          "internalType": "string",
          "name": "comment",
          "type": "string"
        }
      ],
      "name": "add",
      "outputs": [],
      "payable": false,
      "stateMutability": "nonpayable",
      "type": "function"
    },
    {
      "constant": false,
      "inputs": [
        {
          "internalType": "address",
          "name": "_user",
          "type": "address"
        },
        {
          "internalType": "string",
          "name": "fileName",
          "type": "string"
        },
        {
          "internalType": "uint256",
          "name": "version",
          "type": "uint256"
        }
      ],
      "name": "starFile",
      "outputs": [],
      "payable": false,
      "stateMutability": "nonpayable",
      "type": "function"
    },
    {
      "constant": false,
      "inputs": [
        {
          "internalType": "address",
          "name": "_user",
          "type": "address"
        },
        {
          "internalType": "string",
          "name": "fileName",
          "type": "string"
        },
        {
          "internalType": "uint256",
          "name": "version",
          "type": "uint256"
        },
        {
          "internalType": "string",
          "name": "comment",
          "type": "string"
        }
      ],
      "name": "addComment",
      "outputs": [],
      "payable": false,
      "stateMutability": "nonpayable",
      "type": "function"
    },
    {
      "constant": false,
      "inputs": [
        {
          "internalType": "address",
          "name": "_user",
          "type": "address"
        },
        {
          "internalType": "string",
          "name": "fileName",
          "type": "string"
        },
        {
          "internalType": "uint256",
          "name": "version",
          "type": "uint256"
        }
      ],
      "name": "deleteComment",
      "outputs": [],
      "payable": false,
      "stateMutability": "nonpayable",
      "type": "function"
    },
    {
      "constant": false,
      "inputs": [
        {
          "internalType": "address",
          "name": "_user",
          "type": "address"
        },
        {
          "internalType": "string",
          "name": "fileName",
          "type": "string"
        },
        {
          "internalType": "uint256",
          "name": "version",
          "type": "uint256"
        }
      ],
      "name": "unStarFile",
      "outputs": [],
      "payable": false,
      "stateMutability": "nonpayable",
      "type": "function"
    },
    {
      "constant": true,
      "inputs": [
        {
          "internalType": "address",
          "name": "_user",
          "type": "address"
        }
      ],
      "name": "getFilesForUser",
      "outputs": [
        {
          "components": [
            {
              "internalType": "string",
              "name": "url",
              "type": "string"
            },
            {
              "internalType": "uint256",
              "name": "version",
              "type": "uint256"
            },
            {
              "internalType": "string",
              "name": "name",
              "type": "string"
            },
            {
              "internalType": "bool",
              "name": "isStarred",
              "type": "bool"
            },
            {
              "internalType": "string",
              "name": "comment",
              "type": "string"
            }
          ],
          "internalType": "struct FileUtils.File[]",
          "name": "",
          "type": "tuple[]"
        }
      ],
      "payable": false,
      "stateMutability": "view",
      "type": "function"
    },
    {
      "constant": false,
      "inputs": [
        {
          "internalType": "address",
          "name": "_user",
          "type": "address"
        },
        {
          "internalType": "string",
          "name": "name",
          "type": "string"
        },
        {
          "internalType": "uint256",
          "name": "version",
          "type": "uint256"
        }
      ],
      "name": "deleteFile",
      "outputs": [],
      "payable": false,
      "stateMutability": "nonpayable",
      "type": "function"
    },
    {
      "constant": false,
      "inputs": [
        {
          "internalType": "address",
          "name": "user",
          "type": "address"
        }
      ],
      "name": "allow",
      "outputs": [],
      "payable": false,
      "stateMutability": "nonpayable",
      "type": "function"
    },
    {
      "constant": false,
      "inputs": [
        {
          "internalType": "address",
          "name": "user",
          "type": "address"
        }
      ],
      "name": "disallow",
      "outputs": [],
      "payable": false,
      "stateMutability": "nonpayable",
      "type": "function"
    },
    {
      "constant": true,
      "inputs": [
        {
          "internalType": "address",
          "name": "_user",
          "type": "address"
        }
      ],
      "name": "display",
      "outputs": [
        {
          "internalType": "string[]",
          "name": "",
          "type": "string[]"
        }
      ],
      "payable": false,
      "stateMutability": "view",
      "type": "function"
    },
    {
      "constant": true,
      "inputs": [],
      "name": "shareAccess",
      "outputs": [
        {
          "components": [
            {
              "internalType": "address",
              "name": "user",
              "type": "address"
            },
            {
              "internalType": "bool",
              "name": "access",
              "type": "bool"
            }
          ],
          "internalType": "struct FileUtils.Access[]",
          "name": "",
          "type": "tuple[]"
        }
      ],
      "payable": false,
      "stateMutability": "view",
      "type": "function"
    }
  ],
  "bytecode": "0x608060405234801561001057600080fd5b50613a68806100206000396000f3fe608060405234801561001057600080fd5b50600436106100cf5760003560e01c8063b53458c11161008c578063e0e9ad4f11610066578063e0e9ad4f146101fa578063eb39113f14610216578063ebf8fe1114610246578063ff9913e814610262576100cf565b8063b53458c114610190578063bc8bef81146101ac578063d13431cb146101ca576100cf565b80631c0b75e8146100d45780634e35f256146101045780636f971500146101205780637e72f3f51461013c5780639527b19b14610158578063a9ed9cb814610174575b600080fd5b6100ee60048036036100e9919081019061320c565b61027e565b6040516100fb9190613763565b60405180910390f35b61011e600480360361011991908101906130e8565b6103f3565b005b61013a6004803603610135919081019061307c565b6107ce565b005b6101566004803603610151919081019061307c565b610af8565b005b610172600480360361016d9190810190612fc3565b610e29565b005b61018e60048036036101899190810190612f9a565b61152c565b005b6101aa60048036036101a5919081019061307c565b61173e565b005b6101b4611a2d565b6040516101c19190613741565b60405180910390f35b6101e460048036036101df9190810190612f9a565b611b36565b6040516101f19190613785565b60405180910390f35b610214600480360361020f9190810190613183565b611fe5565b005b610230600480360361022b9190810190612f9a565b61210d565b60405161023d919061371f565b60405180910390f35b610260600480360361025b919081019061307c565b612333565b005b61027c60048036036102779190810190612f9a565b6126d0565b005b606060068260405161029091906136f1565b9081526020016040518091039020805480602002602001604051908101604052809291908181526020016000905b828210156103e857838290600052602060002090600202016040518060400160405290816000820160009054906101000a900473ffffffffffffffffffffffffffffffffffffffff1673ffffffffffffffffffffffffffffffffffffffff1673ffffffffffffffffffffffffffffffffffffffff168152602001600182018054600181600116156101000203166002900480601f0160208091040260200160405190810160405280929190818152602001828054600181600116156101000203166002900480156103d05780601f106103a5576101008083540402835291602001916103d0565b820191906000526020600020905b8154815290600101906020018083116103b357829003601f168201915b505050505081525050815260200190600101906102be565b505050509050919050565b6000600360008873ffffffffffffffffffffffffffffffffffffffff1673ffffffffffffffffffffffffffffffffffffffff16815260200190815260200160002086866040516104449291906136d8565b9081526020016040518091039020905060008090505b81805490508110156107c4578482828154811061047357fe5b90600052602060002090600502016001015414156107b757610493612b0a565b82828154811061049f57fe5b90600052602060002090600502016040518060a0016040529081600082018054600181600116156101000203166002900480601f0160208091040260200160405190810160405280929190818152602001828054600181600116156101000203166002900480156105515780601f1061052657610100808354040283529160200191610551565b820191906000526020600020905b81548152906001019060200180831161053457829003601f168201915b5050505050815260200160018201548152602001600282018054600181600116156101000203166002900480601f0160208091040260200160405190810160405280929190818152602001828054600181600116156101000203166002900480156105fd5780601f106105d2576101008083540402835291602001916105fd565b820191906000526020600020905b8154815290600101906020018083116105e057829003601f168201915b505050505081526020016003820160009054906101000a900460ff16151515158152602001600482018054600181600116156101000203166002900480601f0160208091040260200160405190810160405280929190818152602001828054600181600116156101000203166002900480156106ba5780601f1061068f576101008083540402835291602001916106ba565b820191906000526020600020905b81548152906001019060200180831161069d57829003601f168201915b505050505081525050905084848080601f016020809104026020016040519081016040528093929190818152602001838380828437600081840152601f19601f8201169050808301925050505050505081608001819052508083838154811061071f57fe5b90600052602060002090600502016000820151816000019080519060200190610749929190612b3b565b50602082015181600101556040820151816002019080519060200190610770929190612b3b565b5060608201518160030160006101000a81548160ff02191690831515021790555060808201518160040190805190602001906107ad929190612b3b565b50905050506107c4565b808060010191505061045a565b5050505050505050565b6060600360008673ffffffffffffffffffffffffffffffffffffffff1673ffffffffffffffffffffffffffffffffffffffff168152602001908152602001600020848460405161081f9291906136d8565b9081526020016040518091039020805480602002602001604051908101604052809291908181526020016000905b82821015610a8a57838290600052602060002090600502016040518060a0016040529081600082018054600181600116156101000203166002900480601f0160208091040260200160405190810160405280929190818152602001828054600181600116156101000203166002900480156109095780601f106108de57610100808354040283529160200191610909565b820191906000526020600020905b8154815290600101906020018083116108ec57829003601f168201915b5050505050815260200160018201548152602001600282018054600181600116156101000203166002900480601f0160208091040260200160405190810160405280929190818152602001828054600181600116156101000203166002900480156109b55780601f1061098a576101008083540402835291602001916109b5565b820191906000526020600020905b81548152906001019060200180831161099857829003601f168201915b505050505081526020016003820160009054906101000a900460ff16151515158152602001600482018054600181600116156101000203166002900480601f016020809104026020016040519081016040528092919081815260200182805460018160011615610100020316600290048015610a725780601f10610a4757610100808354040283529160200191610a72565b820191906000526020600020905b815481529060010190602001808311610a5557829003601f168201915b5050505050815250508152602001906001019061084d565b50505050905060008090505b8151811215610af05782828281518110610aac57fe5b6020026020010151602001511415610ae3576000828281518110610acc57fe5b602002602001015160600190151590811515815250505b8080600101915050610a96565b505050505050565b6060600360008673ffffffffffffffffffffffffffffffffffffffff1673ffffffffffffffffffffffffffffffffffffffff1681526020019081526020016000208484604051610b499291906136d8565b9081526020016040518091039020805480602002602001604051908101604052809291908181526020016000905b82821015610db457838290600052602060002090600502016040518060a0016040529081600082018054600181600116156101000203166002900480601f016020809104026020016040519081016040528092919081815260200182805460018160011615610100020316600290048015610c335780601f10610c0857610100808354040283529160200191610c33565b820191906000526020600020905b815481529060010190602001808311610c1657829003601f168201915b5050505050815260200160018201548152602001600282018054600181600116156101000203166002900480601f016020809104026020016040519081016040528092919081815260200182805460018160011615610100020316600290048015610cdf5780601f10610cb457610100808354040283529160200191610cdf565b820191906000526020600020905b815481529060010190602001808311610cc257829003601f168201915b505050505081526020016003820160009054906101000a900460ff16151515158152602001600482018054600181600116156101000203166002900480601f016020809104026020016040519081016040528092919081815260200182805460018160011615610100020316600290048015610d9c5780601f10610d7157610100808354040283529160200191610d9c565b820191906000526020600020905b815481529060010190602001808311610d7f57829003601f168201915b50505050508152505081526020019060010190610b77565b50505050905060008090505b8151811215610e215782828281518110610dd657fe5b6020026020010151602001511415610e145760405180602001604052806000815250828281518110610e0457fe5b6020026020010151608001819052505b8080600101915050610dc0565b505050505050565b6000600360008973ffffffffffffffffffffffffffffffffffffffff1673ffffffffffffffffffffffffffffffffffffffff1681526020019081526020016000208585604051610e7a9291906136d8565b90815260200160405180910390208054905011156111025760006001600360008a73ffffffffffffffffffffffffffffffffffffffff1673ffffffffffffffffffffffffffffffffffffffff1681526020019081526020016000208686604051610ee59291906136d8565b908152602001604051809103902080549050019050600360008973ffffffffffffffffffffffffffffffffffffffff1673ffffffffffffffffffffffffffffffffffffffff1681526020019081526020016000208585604051610f499291906136d8565b90815260200160405180910390206040518060a0016040528089898080601f016020809104026020016040519081016040528093929190818152602001838380828437600081840152601f19601f82011690508083019250505050505050815260200183815260200187878080601f016020809104026020016040519081016040528093929190818152602001838380828437600081840152601f19601f82011690508083019250505050505050815260200160001515815260200185858080601f016020809104026020016040519081016040528093929190818152602001838380828437600081840152601f19601f82011690508083019250505050505050815250908060018154018082558091505090600182039060005260206000209060050201600090919290919091506000820151816000019080519060200190611094929190612b3b565b506020820151816001015560408201518160020190805190602001906110bb929190612b3b565b5060608201518160030160006101000a81548160ff02191690831515021790555060808201518160040190805190602001906110f8929190612b3b565b5050505050611306565b600360008873ffffffffffffffffffffffffffffffffffffffff1673ffffffffffffffffffffffffffffffffffffffff16815260200190815260200160002084846040516111519291906136d8565b90815260200160405180910390206040518060a0016040528088888080601f016020809104026020016040519081016040528093929190818152602001838380828437600081840152601f19601f8201169050808301925050505050505081526020016001815260200186868080601f016020809104026020016040519081016040528093929190818152602001838380828437600081840152601f19601f82011690508083019250505050505050815260200160001515815260200184848080601f016020809104026020016040519081016040528093929190818152602001838380828437600081840152601f19601f8201169050808301925050505050505081525090806001815401808255809150509060018203906000526020600020906005020160009091929091909150600082015181600001908051906020019061129d929190612b3b565b506020820151816001015560408201518160020190805190602001906112c4929190612b3b565b5060608201518160030160006101000a81548160ff0219169083151502179055506080820151816004019080519060200190611301929190612b3b565b505050505b6000808873ffffffffffffffffffffffffffffffffffffffff1673ffffffffffffffffffffffffffffffffffffffff168152602001908152602001600020868690918060018154018082558091505090600182039060005260206000200160009091929390919293909192909192509190611382929190612bbb565b5050600080905060008090505b600160008a73ffffffffffffffffffffffffffffffffffffffff1673ffffffffffffffffffffffffffffffffffffffff168152602001908152602001600020805490508110156114985785856040516020016113ec9291906136d8565b60405160208183030381529060405280519060200120600160008b73ffffffffffffffffffffffffffffffffffffffff1673ffffffffffffffffffffffffffffffffffffffff168152602001908152602001600020828154811061144c57fe5b906000526020600020016040516020016114669190613708565b60405160208183030381529060405280519060200120141561148b5760019150611498565b808060010191505061138f565b50600081141561152257600160008973ffffffffffffffffffffffffffffffffffffffff1673ffffffffffffffffffffffffffffffffffffffff16815260200190815260200160002085859091806001815401808255809150509060018203906000526020600020016000909192939091929390919290919250919061151f929190612bbb565b50505b5050505050505050565b6000600260003373ffffffffffffffffffffffffffffffffffffffff1673ffffffffffffffffffffffffffffffffffffffff16815260200190815260200160002060008373ffffffffffffffffffffffffffffffffffffffff1673ffffffffffffffffffffffffffffffffffffffff16815260200190815260200160002060006101000a81548160ff02191690831515021790555060008090505b600460003373ffffffffffffffffffffffffffffffffffffffff1673ffffffffffffffffffffffffffffffffffffffff1681526020019081526020016000208054905081101561173a578173ffffffffffffffffffffffffffffffffffffffff16600460003373ffffffffffffffffffffffffffffffffffffffff1673ffffffffffffffffffffffffffffffffffffffff168152602001908152602001600020828154811061167257fe5b9060005260206000200160000160009054906101000a900473ffffffffffffffffffffffffffffffffffffffff1673ffffffffffffffffffffffffffffffffffffffff16141561172d576000600460003373ffffffffffffffffffffffffffffffffffffffff1673ffffffffffffffffffffffffffffffffffffffff168152602001908152602001600020828154811061170857fe5b9060005260206000200160000160146101000a81548160ff0219169083151502179055505b80806001019150506115c7565b5050565b6000600360008673ffffffffffffffffffffffffffffffffffffffff1673ffffffffffffffffffffffffffffffffffffffff168152602001908152602001600020848460405161178f9291906136d8565b908152602001604051809103902090506000600182805490500390505b6000811261194457828282815481106117c157fe5b906000526020600020906005020160010154141561193657816001838054905003815481106117ec57fe5b906000526020600020906005020182828154811061180657fe5b90600052602060002090600502016000820181600001908054600181600116156101000203166002900461183b929190612c3b565b50600182015481600101556002820181600201908054600181600116156101000203166002900461186d929190612c3b565b506003820160009054906101000a900460ff168160030160006101000a81548160ff021916908315150217905550600482018160040190805460018160011615610100020316600290046118c2929190612c3b565b50905050818054806118d057fe5b6001900381819060005260206000209060050201600080820160006118f59190612cc2565b600182016000905560028201600061190d9190612cc2565b6003820160006101000a81549060ff02191690556004820160006119319190612cc2565b505090555b8080600190039150506117ac565b5080600360008773ffffffffffffffffffffffffffffffffffffffff1673ffffffffffffffffffffffffffffffffffffffff16815260200190815260200160002085856040516119959291906136d8565b90815260200160405180910390209080546119b1929190612d0a565b50600081805490501415611a2657600160008673ffffffffffffffffffffffffffffffffffffffff1673ffffffffffffffffffffffffffffffffffffffff168152602001908152602001600020805480611a0757fe5b600190038181906000526020600020016000611a239190612cc2565b90555b5050505050565b6060600460003373ffffffffffffffffffffffffffffffffffffffff1673ffffffffffffffffffffffffffffffffffffffff168152602001908152602001600020805480602002602001604051908101604052809291908181526020016000905b82821015611b2d578382906000526020600020016040518060400160405290816000820160009054906101000a900473ffffffffffffffffffffffffffffffffffffffff1673ffffffffffffffffffffffffffffffffffffffff1673ffffffffffffffffffffffffffffffffffffffff1681526020016000820160149054906101000a900460ff16151515158152505081526020019060010190611a8e565b50505050905090565b6060806014604051908082528060200260200182016040528015611b7457816020015b611b61612e11565b815260200190600190039081611b595790505b509050600080905060008090505b600160008673ffffffffffffffffffffffffffffffffffffffff1673ffffffffffffffffffffffffffffffffffffffff16815260200190815260200160002080549050811015611fda576060600160008773ffffffffffffffffffffffffffffffffffffffff1673ffffffffffffffffffffffffffffffffffffffff1681526020019081526020016000208281548110611c1857fe5b906000526020600020018054600181600116156101000203166002900480601f016020809104026020016040519081016040528092919081815260200182805460018160011615610100020316600290048015611cb65780601f10611c8b57610100808354040283529160200191611cb6565b820191906000526020600020905b815481529060010190602001808311611c9957829003601f168201915b505050505090506060600360008873ffffffffffffffffffffffffffffffffffffffff1673ffffffffffffffffffffffffffffffffffffffff16815260200190815260200160002082604051611d0c91906136f1565b9081526020016040518091039020805480602002602001604051908101604052809291908181526020016000905b82821015611f7757838290600052602060002090600502016040518060a0016040529081600082018054600181600116156101000203166002900480601f016020809104026020016040519081016040528092919081815260200182805460018160011615610100020316600290048015611df65780601f10611dcb57610100808354040283529160200191611df6565b820191906000526020600020905b815481529060010190602001808311611dd957829003601f168201915b5050505050815260200160018201548152602001600282018054600181600116156101000203166002900480601f016020809104026020016040519081016040528092919081815260200182805460018160011615610100020316600290048015611ea25780601f10611e7757610100808354040283529160200191611ea2565b820191906000526020600020905b815481529060010190602001808311611e8557829003601f168201915b505050505081526020016003820160009054906101000a900460ff16151515158152602001600482018054600181600116156101000203166002900480601f016020809104026020016040519081016040528092919081815260200182805460018160011615610100020316600290048015611f5f5780601f10611f3457610100808354040283529160200191611f5f565b820191906000526020600020905b815481529060010190602001808311611f4257829003601f168201915b50505050508152505081526020019060010190611d3a565b50505050905060008090505b8151811015611fca57818181518110611f9857fe5b6020026020010151868681518110611fac57fe5b60200260200101819052506001850194508080600101915050611f83565b5050508080600101915050611b82565b508192505050919050565b60068585604051611ff79291906136d8565b908152602001604051809103902060405180604001604052808573ffffffffffffffffffffffffffffffffffffffff16815260200184848080601f016020809104026020016040519081016040528093929190818152602001838380828437600081840152601f19601f820116905080830192505050505050508152509080600181540180825580915050906001820390600052602060002090600202016000909192909190915060008201518160000160006101000a81548173ffffffffffffffffffffffffffffffffffffffff021916908373ffffffffffffffffffffffffffffffffffffffff1602179055506020820151816001019080519060200190612102929190612b3b565b505050505050505050565b60603373ffffffffffffffffffffffffffffffffffffffff168273ffffffffffffffffffffffffffffffffffffffff1614806121cf5750600260008373ffffffffffffffffffffffffffffffffffffffff1673ffffffffffffffffffffffffffffffffffffffff16815260200190815260200160002060003373ffffffffffffffffffffffffffffffffffffffff1673ffffffffffffffffffffffffffffffffffffffff16815260200190815260200160002060009054906101000a900460ff165b61220e576040517f08c379a0000000000000000000000000000000000000000000000000000000008152600401612205906137a7565b60405180910390fd5b6000808373ffffffffffffffffffffffffffffffffffffffff1673ffffffffffffffffffffffffffffffffffffffff168152602001908152602001600020805480602002602001604051908101604052809291908181526020016000905b82821015612328578382906000526020600020018054600181600116156101000203166002900480601f0160208091040260200160405190810160405280929190818152602001828054600181600116156101000203166002900480156123145780601f106122e957610100808354040283529160200191612314565b820191906000526020600020905b8154815290600101906020018083116122f757829003601f168201915b50505050508152602001906001019061226c565b505050509050919050565b6000600360008673ffffffffffffffffffffffffffffffffffffffff1673ffffffffffffffffffffffffffffffffffffffff16815260200190815260200160002084846040516123849291906136d8565b9081526020016040518091039020905060008090505b81805490508110156126c857828282815481106123b357fe5b90600052602060002090600502016001015414156126bb576123d3612b0a565b8282815481106123df57fe5b90600052602060002090600502016040518060a0016040529081600082018054600181600116156101000203166002900480601f0160208091040260200160405190810160405280929190818152602001828054600181600116156101000203166002900480156124915780601f1061246657610100808354040283529160200191612491565b820191906000526020600020905b81548152906001019060200180831161247457829003601f168201915b5050505050815260200160018201548152602001600282018054600181600116156101000203166002900480601f01602080910402602001604051908101604052809291908181526020018280546001816001161561010002031660029004801561253d5780601f106125125761010080835404028352916020019161253d565b820191906000526020600020905b81548152906001019060200180831161252057829003601f168201915b505050505081526020016003820160009054906101000a900460ff16151515158152602001600482018054600181600116156101000203166002900480601f0160208091040260200160405190810160405280929190818152602001828054600181600116156101000203166002900480156125fa5780601f106125cf576101008083540402835291602001916125fa565b820191906000526020600020905b8154815290600101906020018083116125dd57829003601f168201915b505050505081525050905060018160600190151590811515815250508083838154811061262357fe5b9060005260206000209060050201600082015181600001908051906020019061264d929190612b3b565b50602082015181600101556040820151816002019080519060200190612674929190612b3b565b5060608201518160030160006101000a81548160ff02191690831515021790555060808201518160040190805190602001906126b1929190612b3b565b50905050506126c8565b808060010191505061239a565b505050505050565b6001600260003373ffffffffffffffffffffffffffffffffffffffff1673ffffffffffffffffffffffffffffffffffffffff16815260200190815260200160002060008373ffffffffffffffffffffffffffffffffffffffff1673ffffffffffffffffffffffffffffffffffffffff16815260200190815260200160002060006101000a81548160ff021916908315150217905550600560003373ffffffffffffffffffffffffffffffffffffffff1673ffffffffffffffffffffffffffffffffffffffff16815260200190815260200160002060008273ffffffffffffffffffffffffffffffffffffffff1673ffffffffffffffffffffffffffffffffffffffff16815260200190815260200160002060009054906101000a900460ff16156129735760008090505b600460003373ffffffffffffffffffffffffffffffffffffffff1673ffffffffffffffffffffffffffffffffffffffff1681526020019081526020016000208054905081101561296d578173ffffffffffffffffffffffffffffffffffffffff16600460003373ffffffffffffffffffffffffffffffffffffffff1673ffffffffffffffffffffffffffffffffffffffff16815260200190815260200160002082815481106128a557fe5b9060005260206000200160000160009054906101000a900473ffffffffffffffffffffffffffffffffffffffff1673ffffffffffffffffffffffffffffffffffffffff161415612960576001600460003373ffffffffffffffffffffffffffffffffffffffff1673ffffffffffffffffffffffffffffffffffffffff168152602001908152602001600020828154811061293b57fe5b9060005260206000200160000160146101000a81548160ff0219169083151502179055505b80806001019150506127fa565b50612b07565b600460003373ffffffffffffffffffffffffffffffffffffffff1673ffffffffffffffffffffffffffffffffffffffff16815260200190815260200160002060405180604001604052808373ffffffffffffffffffffffffffffffffffffffff1681526020016001151581525090806001815401808255809150509060018203906000526020600020016000909192909190915060008201518160000160006101000a81548173ffffffffffffffffffffffffffffffffffffffff021916908373ffffffffffffffffffffffffffffffffffffffff16021790555060208201518160000160146101000a81548160ff0219169083151502179055505050506001600560003373ffffffffffffffffffffffffffffffffffffffff1673ffffffffffffffffffffffffffffffffffffffff16815260200190815260200160002060008373ffffffffffffffffffffffffffffffffffffffff1673ffffffffffffffffffffffffffffffffffffffff16815260200190815260200160002060006101000a81548160ff0219169083151502179055505b50565b6040518060a00160405280606081526020016000815260200160608152602001600015158152602001606081525090565b828054600181600116156101000203166002900490600052602060002090601f016020900481019282601f10612b7c57805160ff1916838001178555612baa565b82800160010185558215612baa579182015b82811115612ba9578251825591602001919060010190612b8e565b5b509050612bb79190612e42565b5090565b828054600181600116156101000203166002900490600052602060002090601f016020900481019282601f10612bfc57803560ff1916838001178555612c2a565b82800160010185558215612c2a579182015b82811115612c29578235825591602001919060010190612c0e565b5b509050612c379190612e42565b5090565b828054600181600116156101000203166002900490600052602060002090601f016020900481019282601f10612c745780548555612cb1565b82800160010185558215612cb157600052602060002091601f016020900482015b82811115612cb0578254825591600101919060010190612c95565b5b509050612cbe9190612e42565b5090565b50805460018160011615610100020316600290046000825580601f10612ce85750612d07565b601f016020900490600052602060002090810190612d069190612e42565b5b50565b828054828255906000526020600020906005028101928215612e005760005260206000209160050282015b82811115612dff57828260008201816000019080546001816001161561010002031660029004612d66929190612c3b565b506001820154816001015560028201816002019080546001816001161561010002031660029004612d98929190612c3b565b506003820160009054906101000a900460ff168160030160006101000a81548160ff02191690831515021790555060048201816004019080546001816001161561010002031660029004612ded929190612c3b565b50505091600501919060050190612d35565b5b509050612e0d9190612e67565b5090565b6040518060a00160405280606081526020016000815260200160608152602001600015158152602001606081525090565b612e6491905b80821115612e60576000816000905550600101612e48565b5090565b90565b612ecf91905b80821115612ecb5760008082016000612e869190612cc2565b6001820160009055600282016000612e9e9190612cc2565b6003820160006101000a81549060ff0219169055600482016000612ec29190612cc2565b50600501612e6d565b5090565b90565b600081359050612ee1816139f7565b92915050565b60008083601f840112612ef957600080fd5b8235905067ffffffffffffffff811115612f1257600080fd5b602083019150836001820283011115612f2a57600080fd5b9250929050565b600082601f830112612f4257600080fd5b8135612f55612f50826137f4565b6137c7565b91508082526020830160208301858383011115612f7157600080fd5b612f7c8382846139a4565b50505092915050565b600081359050612f9481613a0e565b92915050565b600060208284031215612fac57600080fd5b6000612fba84828501612ed2565b91505092915050565b60008060008060008060006080888a031215612fde57600080fd5b6000612fec8a828b01612ed2565b975050602088013567ffffffffffffffff81111561300957600080fd5b6130158a828b01612ee7565b9650965050604088013567ffffffffffffffff81111561303457600080fd5b6130408a828b01612ee7565b9450945050606088013567ffffffffffffffff81111561305f57600080fd5b61306b8a828b01612ee7565b925092505092959891949750929550565b6000806000806060858703121561309257600080fd5b60006130a087828801612ed2565b945050602085013567ffffffffffffffff8111156130bd57600080fd5b6130c987828801612ee7565b935093505060406130dc87828801612f85565b91505092959194509250565b6000806000806000806080878903121561310157600080fd5b600061310f89828a01612ed2565b965050602087013567ffffffffffffffff81111561312c57600080fd5b61313889828a01612ee7565b9550955050604061314b89828a01612f85565b935050606087013567ffffffffffffffff81111561316857600080fd5b61317489828a01612ee7565b92509250509295509295509295565b60008060008060006060868803121561319b57600080fd5b600086013567ffffffffffffffff8111156131b557600080fd5b6131c188828901612ee7565b955095505060206131d488828901612ed2565b935050604086013567ffffffffffffffff8111156131f157600080fd5b6131fd88828901612ee7565b92509250509295509295909350565b60006020828403121561321e57600080fd5b600082013567ffffffffffffffff81111561323857600080fd5b61324484828501612f31565b91505092915050565b600061325983836134d2565b905092915050565b600061326d83836135d9565b60408301905092915050565b60006132858383613608565b905092915050565b60006132998383613645565b905092915050565b6132aa8161395c565b82525050565b60006132bb82613875565b6132c581856138eb565b9350836020820285016132d785613820565b8060005b8581101561331357848403895281516132f4858261324d565b94506132ff836138b7565b925060208a019950506001810190506132db565b50829750879550505050505092915050565b600061333082613880565b61333a81856138fc565b935061334583613830565b8060005b8381101561337657815161335d8882613261565b9750613368836138c4565b925050600181019050613349565b5085935050505092915050565b600061338e8261388b565b613398818561390d565b9350836020820285016133aa85613840565b8060005b858110156133e657848403895281516133c78582613279565b94506133d2836138d1565b925060208a019950506001810190506133ae565b50829750879550505050505092915050565b600061340382613896565b61340d818561391e565b93508360208202850161341f85613850565b8060005b8581101561345b578484038952815161343c858261328d565b9450613447836138de565b925060208a01995050600181019050613423565b50829750879550505050505092915050565b6134768161396e565b82525050565b60006134888385613951565b93506134958385846139a4565b82840190509392505050565b60006134ac826138ac565b6134b68185613951565b93506134c68185602086016139b3565b80840191505092915050565b60006134dd826138a1565b6134e7818561392f565b93506134f78185602086016139b3565b613500816139e6565b840191505092915050565b600081546001811660008114613528576001811461354d57613591565b607f60028304166135398187613951565b955060ff1983168652808601935050613591565b6002820461355b8187613951565b955061356685613860565b60005b8281101561358857815481890152600182019150602081019050613569565b82880195505050505b505092915050565b60006135a6601583613940565b91507f596f7520646f6e277420686176652061636365737300000000000000000000006000830152602082019050919050565b6040820160008201516135ef60008501826132a1565b506020820151613602602085018261346d565b50505050565b600060408301600083015161362060008601826132a1565b506020830151848203602086015261363882826134d2565b9150508091505092915050565b600060a083016000830151848203600086015261366282826134d2565b915050602083015161367760208601826136c9565b506040830151848203604086015261368f82826134d2565b91505060608301516136a4606086018261346d565b50608083015184820360808601526136bc82826134d2565b9150508091505092915050565b6136d28161399a565b82525050565b60006136e582848661347c565b91508190509392505050565b60006136fd82846134a1565b915081905092915050565b6000613714828461350b565b915081905092915050565b6000602082019050818103600083015261373981846132b0565b905092915050565b6000602082019050818103600083015261375b8184613325565b905092915050565b6000602082019050818103600083015261377d8184613383565b905092915050565b6000602082019050818103600083015261379f81846133f8565b905092915050565b600060208201905081810360008301526137c081613599565b9050919050565b6000604051905081810181811067ffffffffffffffff821117156137ea57600080fd5b8060405250919050565b600067ffffffffffffffff82111561380b57600080fd5b601f19601f8301169050602081019050919050565b6000819050602082019050919050565b6000819050602082019050919050565b6000819050602082019050919050565b6000819050602082019050919050565b60008190508160005260206000209050919050565b600081519050919050565b600081519050919050565b600081519050919050565b600081519050919050565b600081519050919050565b600081519050919050565b6000602082019050919050565b6000602082019050919050565b6000602082019050919050565b6000602082019050919050565b600082825260208201905092915050565b600082825260208201905092915050565b600082825260208201905092915050565b600082825260208201905092915050565b600082825260208201905092915050565b600082825260208201905092915050565b600081905092915050565b60006139678261397a565b9050919050565b60008115159050919050565b600073ffffffffffffffffffffffffffffffffffffffff82169050919050565b6000819050919050565b82818337600083830152505050565b60005b838110156139d15780820151818401526020810190506139b6565b838111156139e0576000848401525b50505050565b6000601f19601f8301169050919050565b613a008161395c565b8114613a0b57600080fd5b50565b613a178161399a565b8114613a2257600080fd5b5056fea365627a7a7231582076a0b03c9f8f5b8df7550c1e939b841e099e1fb62d2a430d60fca2f43d0cd4236c6578706572696d656e74616cf564736f6c63430005100040",
  "source": "// SPDX-License-Identifier: GPL-3.0\r\n\r\npragma solidity >=0.4.21 <0.6.0;\r\n\r\npragma experimental ABIEncoderV2;\r\n\r\ncontract FileUtils {\r\n\r\n struct File{\r\n    string url;\r\n    uint version;\r\n    string name;\r\n    bool isStarred;\r\n    string comment;\r\n }\r\n  \r\n  struct Access{\r\n     address user; \r\n     bool access; \r\n  }\r\n\r\n  struct FileLog{\r\n      address user;\r\n      string timestamp;\r\n  }\r\n  mapping(address=>string[]) fileUrls;\r\n  mapping(address=>string[]) fileNames;\r\n  mapping(address=>mapping(address=>bool)) trackOwner;\r\n  mapping(address=>mapping(string=>File[])) filesMapping;\r\n  mapping(address=>Access[]) accessList;\r\n  mapping(address=>mapping(address=>bool)) lastState;\r\n  mapping(string=>FileLog[]) fileLogs;\r\n\r\n\r\n  function log(string calldata file, address _user, string calldata timestamp) external{\r\n      fileLogs[file].push(FileLog(_user, timestamp));\r\n  }\r\n\r\n  function getLogs(string memory file) public view returns(FileLog[] memory){\r\n      return fileLogs[file];\r\n  }\r\n\r\n  function add(address _user,string calldata url, string calldata name, string calldata comment) external {\r\n      if(filesMapping[_user][name].length > 0){\r\n          uint version = filesMapping[_user][name].length + 1;\r\n          filesMapping[_user][name].push(File(url, version, name, false, comment));\r\n      }else{\r\n        filesMapping[_user][name].push(File(url, 1, name, false, comment));\r\n      }\r\n        fileUrls[_user].push(url);\r\n\r\n        uint flag=0;\r\n\r\n        for(uint i=0; i<fileNames[_user].length;i++){\r\n            if(keccak256(abi.encodePacked(fileNames[_user][i]))==keccak256(abi.encodePacked(name))){\r\n                flag=1;\r\n                break;\r\n            }\r\n        }\r\n        if(flag==0)\r\n             fileNames[_user].push(name);\r\n  }\r\n\r\nfunction starFile(address _user, string calldata fileName, uint version) external {\r\n    File[] storage fileList = filesMapping[_user][fileName];\r\n    for (uint i = 0; i < fileList.length; i++) {\r\n        if (fileList[i].version == version) {\r\n            File memory updatedFile = fileList[i];\r\n            updatedFile.isStarred = true;\r\n            fileList[i] = updatedFile;\r\n            break;\r\n        }\r\n    }\r\n}\r\n    function addComment(address _user, string calldata fileName, uint version, string calldata comment) external {\r\n         File[] storage fileList = filesMapping[_user][fileName];\r\n            for (uint i = 0; i < fileList.length; i++) {\r\n                if (fileList[i].version == version) {\r\n                File memory updatedFile = fileList[i];\r\n                updatedFile.comment = comment;\r\n                fileList[i] = updatedFile;\r\n                break;\r\n            }\r\n    }\r\n     }\r\n\r\n    function deleteComment(address _user, string calldata fileName, uint version) external {\r\n         File[] memory fileList = filesMapping[_user][fileName];\r\n           for (int i = 0; i < int(fileList.length); i++) {\r\n              if (fileList[uint(i)].version == version) {\r\n                  fileList[uint(i)].comment=\"\";\r\n              }\r\n           }\r\n     }\r\n\r\n\r\n  function unStarFile(address _user, string calldata fileName, uint version) external{\r\n          File[] memory fileList = filesMapping[_user][fileName];\r\n           for (int i = 0; i < int(fileList.length); i++) {\r\n              if (fileList[uint(i)].version == version) {\r\n                  fileList[uint(i)].isStarred=false;\r\n              }\r\n           }\r\n  }\r\n\r\n  function getFilesForUser(address _user) public view returns(File[]  memory){\r\n      File[] memory fileList = new File[](20);\r\n      uint index=0;\r\n\r\n      for(uint i=0; i<fileNames[_user].length;i++){\r\n          string memory name = fileNames[_user][i];\r\n          File[] memory tempList = filesMapping[_user][name];\r\n          for(uint j=0; j<tempList.length;j++){\r\n            fileList[index]= tempList[j];\r\n            index=index+1;\r\n          }\r\n      }\r\n\r\n    return fileList;\r\n  }\r\n\r\n   function deleteFile(address _user, string calldata name, uint version) external {\r\n         File[] storage fileList = filesMapping[_user][name];\r\n             for (int i = int(fileList.length) - 1; i >= 0; i--) {\r\n              if (fileList[uint(i)].version == version) {\r\n                 fileList[uint(i)] = fileList[fileList.length - 1];\r\n                 fileList.pop();\r\n             }\r\n         }\r\n         filesMapping[_user][name]=fileList;\r\n         if(fileList.length==0){\r\n             fileNames[_user].pop();\r\n         }\r\n   }\r\n\r\n  function allow(address user) external {\r\n      trackOwner[msg.sender][user]=true; \r\n      if(lastState[msg.sender][user]){\r\n         for(uint i=0;i<accessList[msg.sender].length;i++){\r\n             if(accessList[msg.sender][i].user==user){\r\n                  accessList[msg.sender][i].access=true; \r\n             }\r\n         }\r\n      }else{\r\n          accessList[msg.sender].push(Access(user,true));  \r\n          lastState[msg.sender][user]=true;  \r\n      }\r\n    \r\n  }\r\n  function disallow(address user) public{\r\n      trackOwner[msg.sender][user]=false;\r\n      for(uint i=0;i<accessList[msg.sender].length;i++){\r\n          if(accessList[msg.sender][i].user==user){ \r\n              accessList[msg.sender][i].access=false;  \r\n          }\r\n      }\r\n  }\r\n\r\n  function display(address _user) external view returns(string[] memory){\r\n      require(_user==msg.sender || trackOwner[_user][msg.sender],\"You don't have access\");\r\n      return fileUrls[_user];\r\n  }\r\n\r\n  function shareAccess() public view returns(Access[] memory){\r\n      return accessList[msg.sender];\r\n  }\r\n}",
  "sourcePath": "C:\\Users\\atharvakaranje\\Desktop\\CPSC 559 Final Project\\src\\contracts\\FileUtils.sol",
  "compiler": {
    "name": "solc",
    "version": "0.5.16+commit.9c3226ce.Emscripten.clang"
  },
  "schemaVersion": "3.4.11",
  "updatedAt": "2023-05-09T01:54:29.026Z",
  "networkType": "ethereum",
  "devdoc": {
    "methods": {}
  },
  "userdoc": {
    "methods": {}
  }
}