{
  "contractName": "FileAccess",
  "abi": [
    {
      "constant": false,
      "inputs": [
        {
          "internalType": "string",
          "name": "file",
          "type": "string"
        },
        {
          "internalType": "address",
          "name": "_user",
          "type": "address"
        }
      ],
      "name": "log",
      "outputs": [],
      "payable": false,
      "stateMutability": "nonpayable",
      "type": "function"
    },
    {
      "constant": true,
      "inputs": [
        {
          "internalType": "string",
          "name": "file",
          "type": "string"
        }
      ],
      "name": "getLogs",
      "outputs": [
        {
          "internalType": "address[]",
          "name": "",
          "type": "address[]"
        }
      ],
      "payable": false,
      "stateMutability": "view",
      "type": "function"
    },
    {
      "constant": false,
      "inputs": [
        {
          "internalType": "address",
          "name": "_user",
          "type": "address"
        },
        {
          "internalType": "string",
          "name": "url",
          "type": "string"
        },
        {
          "internalType": "string",
          "name": "name",
          "type": "string"
        }
      ],
      "name": "add",
      "outputs": [],
      "payable": false,
      "stateMutability": "nonpayable",
      "type": "function"
    },
    {
      "constant": true,
      "inputs": [
        {
          "internalType": "address",
          "name": "_user",
          "type": "address"
        },
        {
          "internalType": "string",
          "name": "fileName",
          "type": "string"
        },
        {
          "internalType": "uint256",
          "name": "version",
          "type": "uint256"
        }
      ],
      "name": "starFile",
      "outputs": [],
      "payable": false,
      "stateMutability": "view",
      "type": "function"
    },
    {
      "constant": true,
      "inputs": [
        {
          "internalType": "address",
          "name": "_user",
          "type": "address"
        },
        {
          "internalType": "string",
          "name": "fileName",
          "type": "string"
        },
        {
          "internalType": "uint256",
          "name": "version",
          "type": "uint256"
        }
      ],
      "name": "unStarFile",
      "outputs": [],
      "payable": false,
      "stateMutability": "view",
      "type": "function"
    },
    {
      "constant": true,
      "inputs": [
        {
          "internalType": "address",
          "name": "_user",
          "type": "address"
        }
      ],
      "name": "getFilesForUser",
      "outputs": [
        {
          "components": [
            {
              "internalType": "string",
              "name": "url",
              "type": "string"
            },
            {
              "internalType": "uint256",
              "name": "version",
              "type": "uint256"
            },
            {
              "internalType": "string",
              "name": "name",
              "type": "string"
            },
            {
              "internalType": "bool",
              "name": "isStarred",
              "type": "bool"
            }
          ],
          "internalType": "struct FileAccess.File[]",
          "name": "",
          "type": "tuple[]"
        }
      ],
      "payable": false,
      "stateMutability": "view",
      "type": "function"
    },
    {
      "constant": false,
      "inputs": [
        {
          "internalType": "address",
          "name": "_user",
          "type": "address"
        },
        {
          "internalType": "string",
          "name": "name",
          "type": "string"
        },
        {
          "internalType": "uint256",
          "name": "version",
          "type": "uint256"
        }
      ],
      "name": "deleteFile",
      "outputs": [],
      "payable": false,
      "stateMutability": "nonpayable",
      "type": "function"
    },
    {
      "constant": false,
      "inputs": [
        {
          "internalType": "address",
          "name": "user",
          "type": "address"
        }
      ],
      "name": "allow",
      "outputs": [],
      "payable": false,
      "stateMutability": "nonpayable",
      "type": "function"
    },
    {
      "constant": false,
      "inputs": [
        {
          "internalType": "address",
          "name": "user",
          "type": "address"
        }
      ],
      "name": "disallow",
      "outputs": [],
      "payable": false,
      "stateMutability": "nonpayable",
      "type": "function"
    },
    {
      "constant": true,
      "inputs": [
        {
          "internalType": "address",
          "name": "_user",
          "type": "address"
        }
      ],
      "name": "display",
      "outputs": [
        {
          "internalType": "string[]",
          "name": "",
          "type": "string[]"
        }
      ],
      "payable": false,
      "stateMutability": "view",
      "type": "function"
    },
    {
      "constant": true,
      "inputs": [],
      "name": "shareAccess",
      "outputs": [
        {
          "components": [
            {
              "internalType": "address",
              "name": "user",
              "type": "address"
            },
            {
              "internalType": "bool",
              "name": "access",
              "type": "bool"
            }
          ],
          "internalType": "struct FileAccess.Access[]",
          "name": "",
          "type": "tuple[]"
        }
      ],
      "payable": false,
      "stateMutability": "view",
      "type": "function"
    }
  ],
  "bytecode": "0x608060405234801561001057600080fd5b50612c5f806100206000396000f3fe608060405234801561001057600080fd5b50600436106100a95760003560e01c8063b53458c111610071578063b53458c11461014e578063bc8bef811461016a578063d13431cb14610188578063eb39113f146101b8578063ebf8fe11146101e8578063ff9913e814610204576100a9565b80631c0b75e8146100ae578063319af333146100de57806346bc7fd9146100fa5780636f97150014610116578063a9ed9cb814610132575b600080fd5b6100c860048036036100c3919081019061246d565b610220565b6040516100d59190612916565b60405180910390f35b6100f860048036036100f39190810190612415565b6102cc565b005b610114600480360361010f9190810190612320565b610355565b005b610130600480360361012b91908101906123a9565b610988565b005b61014c600480360361014791908101906122f7565b610c10565b005b610168600480360361016391908101906123a9565b610e22565b005b6101726110d9565b60405161017f919061295a565b60405180910390f35b6101a2600480360361019d91908101906122f7565b6111e2565b6040516101af919061297c565b60405180910390f35b6101d260048036036101cd91908101906122f7565b6115ef565b6040516101df9190612938565b60405180910390f35b61020260048036036101fd91908101906123a9565b611815565b005b61021e600480360361021991908101906122f7565b611a9d565b005b606060068260405161023291906128e8565b90815260200160405180910390208054806020026020016040519081016040528092919081815260200182805480156102c057602002820191906000526020600020905b8160009054906101000a900473ffffffffffffffffffffffffffffffffffffffff1673ffffffffffffffffffffffffffffffffffffffff1681526020019060010190808311610276575b50505050509050919050565b600683836040516102de9291906128cf565b90815260200160405180910390208190806001815401808255809150509060018203906000526020600020016000909192909190916101000a81548173ffffffffffffffffffffffffffffffffffffffff021916908373ffffffffffffffffffffffffffffffffffffffff16021790555050505050565b6000600360008773ffffffffffffffffffffffffffffffffffffffff1673ffffffffffffffffffffffffffffffffffffffff16815260200190815260200160002083836040516103a69291906128cf565b90815260200160405180910390208054905011156105c75760006001600360008873ffffffffffffffffffffffffffffffffffffffff1673ffffffffffffffffffffffffffffffffffffffff16815260200190815260200160002084846040516104119291906128cf565b908152602001604051809103902080549050019050600360008773ffffffffffffffffffffffffffffffffffffffff1673ffffffffffffffffffffffffffffffffffffffff16815260200190815260200160002083836040516104759291906128cf565b9081526020016040518091039020604051806080016040528087878080601f016020809104026020016040519081016040528093929190818152602001838380828437600081840152601f19601f82011690508083019250505050505050815260200183815260200185858080601f016020809104026020016040519081016040528093929190818152602001838380828437600081840152601f19601f82011690508083019250505050505050815260200160001515815250908060018154018082558091505090600182039060005260206000209060040201600090919290919091506000820151816000019080519060200190610576929190611ed7565b5060208201518160010155604082015181600201908051906020019061059d929190611ed7565b5060608201518160030160006101000a81548160ff02191690831515021790555050505050610764565b600360008673ffffffffffffffffffffffffffffffffffffffff1673ffffffffffffffffffffffffffffffffffffffff16815260200190815260200160002082826040516106169291906128cf565b9081526020016040518091039020604051806080016040528086868080601f016020809104026020016040519081016040528093929190818152602001838380828437600081840152601f19601f8201169050808301925050505050505081526020016001815260200184848080601f016020809104026020016040519081016040528093929190818152602001838380828437600081840152601f19601f82011690508083019250505050505050815260200160001515815250908060018154018082558091505090600182039060005260206000209060040201600090919290919091506000820151816000019080519060200190610718929190611ed7565b5060208201518160010155604082015181600201908051906020019061073f929190611ed7565b5060608201518160030160006101000a81548160ff0219169083151502179055505050505b6000808673ffffffffffffffffffffffffffffffffffffffff1673ffffffffffffffffffffffffffffffffffffffff1681526020019081526020016000208484909180600181540180825580915050906001820390600052602060002001600090919293909192939091929091925091906107e0929190611f57565b5050600080905060008090505b600160008873ffffffffffffffffffffffffffffffffffffffff1673ffffffffffffffffffffffffffffffffffffffff168152602001908152602001600020805490508110156108f657838360405160200161084a9291906128cf565b60405160208183030381529060405280519060200120600160008973ffffffffffffffffffffffffffffffffffffffff1673ffffffffffffffffffffffffffffffffffffffff16815260200190815260200160002082815481106108aa57fe5b906000526020600020016040516020016108c491906128ff565b6040516020818303038152906040528051906020012014156108e957600191506108f6565b80806001019150506107ed565b50600081141561098057600160008773ffffffffffffffffffffffffffffffffffffffff1673ffffffffffffffffffffffffffffffffffffffff16815260200190815260200160002083839091806001815401808255809150509060018203906000526020600020016000909192939091929390919290919250919061097d929190611f57565b50505b505050505050565b6060600360008673ffffffffffffffffffffffffffffffffffffffff1673ffffffffffffffffffffffffffffffffffffffff16815260200190815260200160002084846040516109d99291906128cf565b9081526020016040518091039020805480602002602001604051908101604052809291908181526020016000905b82821015610ba25783829060005260206000209060040201604051806080016040529081600082018054600181600116156101000203166002900480601f016020809104026020016040519081016040528092919081815260200182805460018160011615610100020316600290048015610ac35780601f10610a9857610100808354040283529160200191610ac3565b820191906000526020600020905b815481529060010190602001808311610aa657829003601f168201915b5050505050815260200160018201548152602001600282018054600181600116156101000203166002900480601f016020809104026020016040519081016040528092919081815260200182805460018160011615610100020316600290048015610b6f5780601f10610b4457610100808354040283529160200191610b6f565b820191906000526020600020905b815481529060010190602001808311610b5257829003601f168201915b505050505081526020016003820160009054906101000a900460ff16151515158152505081526020019060010190610a07565b50505050905060008090505b8151811215610c085782828281518110610bc457fe5b6020026020010151602001511415610bfb576000828281518110610be457fe5b602002602001015160600190151590811515815250505b8080600101915050610bae565b505050505050565b6000600260003373ffffffffffffffffffffffffffffffffffffffff1673ffffffffffffffffffffffffffffffffffffffff16815260200190815260200160002060008373ffffffffffffffffffffffffffffffffffffffff1673ffffffffffffffffffffffffffffffffffffffff16815260200190815260200160002060006101000a81548160ff02191690831515021790555060008090505b600460003373ffffffffffffffffffffffffffffffffffffffff1673ffffffffffffffffffffffffffffffffffffffff16815260200190815260200160002080549050811015610e1e578173ffffffffffffffffffffffffffffffffffffffff16600460003373ffffffffffffffffffffffffffffffffffffffff1673ffffffffffffffffffffffffffffffffffffffff1681526020019081526020016000208281548110610d5657fe5b9060005260206000200160000160009054906101000a900473ffffffffffffffffffffffffffffffffffffffff1673ffffffffffffffffffffffffffffffffffffffff161415610e11576000600460003373ffffffffffffffffffffffffffffffffffffffff1673ffffffffffffffffffffffffffffffffffffffff1681526020019081526020016000208281548110610dec57fe5b9060005260206000200160000160146101000a81548160ff0219169083151502179055505b8080600101915050610cab565b5050565b6000600360008673ffffffffffffffffffffffffffffffffffffffff1673ffffffffffffffffffffffffffffffffffffffff1681526020019081526020016000208484604051610e739291906128cf565b908152602001604051809103902090506000600182805490500390505b60008112610ff05782828281548110610ea557fe5b9060005260206000209060040201600101541415610fe25781600183805490500381548110610ed057fe5b9060005260206000209060040201828281548110610eea57fe5b906000526020600020906004020160008201816000019080546001816001161561010002031660029004610f1f929190611fd7565b506001820154816001015560028201816002019080546001816001161561010002031660029004610f51929190611fd7565b506003820160009054906101000a900460ff168160030160006101000a81548160ff02191690831515021790555090505081805480610f8c57fe5b600190038181906000526020600020906004020160008082016000610fb1919061205e565b6001820160009055600282016000610fc9919061205e565b6003820160006101000a81549060ff0219169055505090555b808060019003915050610e90565b5080600360008773ffffffffffffffffffffffffffffffffffffffff1673ffffffffffffffffffffffffffffffffffffffff16815260200190815260200160002085856040516110419291906128cf565b908152602001604051809103902090805461105d9291906120a6565b506000818054905014156110d257600160008673ffffffffffffffffffffffffffffffffffffffff1673ffffffffffffffffffffffffffffffffffffffff1681526020019081526020016000208054806110b357fe5b6001900381819060005260206000200160006110cf919061205e565b90555b5050505050565b6060600460003373ffffffffffffffffffffffffffffffffffffffff1673ffffffffffffffffffffffffffffffffffffffff168152602001908152602001600020805480602002602001604051908101604052809291908181526020016000905b828210156111d9578382906000526020600020016040518060400160405290816000820160009054906101000a900473ffffffffffffffffffffffffffffffffffffffff1673ffffffffffffffffffffffffffffffffffffffff1673ffffffffffffffffffffffffffffffffffffffff1681526020016000820160149054906101000a900460ff1615151515815250508152602001906001019061113a565b50505050905090565b606080601460405190808252806020026020018201604052801561122057816020015b61120d612185565b8152602001906001900390816112055790505b509050600080905060008090505b600160008673ffffffffffffffffffffffffffffffffffffffff1673ffffffffffffffffffffffffffffffffffffffff168152602001908152602001600020805490508110156115e4576060600160008773ffffffffffffffffffffffffffffffffffffffff1673ffffffffffffffffffffffffffffffffffffffff16815260200190815260200160002082815481106112c457fe5b906000526020600020018054600181600116156101000203166002900480601f0160208091040260200160405190810160405280929190818152602001828054600181600116156101000203166002900480156113625780601f1061133757610100808354040283529160200191611362565b820191906000526020600020905b81548152906001019060200180831161134557829003601f168201915b505050505090506060600360008873ffffffffffffffffffffffffffffffffffffffff1673ffffffffffffffffffffffffffffffffffffffff168152602001908152602001600020826040516113b891906128e8565b9081526020016040518091039020805480602002602001604051908101604052809291908181526020016000905b828210156115815783829060005260206000209060040201604051806080016040529081600082018054600181600116156101000203166002900480601f0160208091040260200160405190810160405280929190818152602001828054600181600116156101000203166002900480156114a25780601f10611477576101008083540402835291602001916114a2565b820191906000526020600020905b81548152906001019060200180831161148557829003601f168201915b5050505050815260200160018201548152602001600282018054600181600116156101000203166002900480601f01602080910402602001604051908101604052809291908181526020018280546001816001161561010002031660029004801561154e5780601f106115235761010080835404028352916020019161154e565b820191906000526020600020905b81548152906001019060200180831161153157829003601f168201915b505050505081526020016003820160009054906101000a900460ff161515151581525050815260200190600101906113e6565b50505050905060008090505b81518110156115d4578181815181106115a257fe5b60200260200101518686815181106115b657fe5b6020026020010181905250600185019450808060010191505061158d565b505050808060010191505061122e565b508192505050919050565b60603373ffffffffffffffffffffffffffffffffffffffff168273ffffffffffffffffffffffffffffffffffffffff1614806116b15750600260008373ffffffffffffffffffffffffffffffffffffffff1673ffffffffffffffffffffffffffffffffffffffff16815260200190815260200160002060003373ffffffffffffffffffffffffffffffffffffffff1673ffffffffffffffffffffffffffffffffffffffff16815260200190815260200160002060009054906101000a900460ff165b6116f0576040517f08c379a00000000000000000000000000000000000000000000000000000000081526004016116e79061299e565b60405180910390fd5b6000808373ffffffffffffffffffffffffffffffffffffffff1673ffffffffffffffffffffffffffffffffffffffff168152602001908152602001600020805480602002602001604051908101604052809291908181526020016000905b8282101561180a578382906000526020600020018054600181600116156101000203166002900480601f0160208091040260200160405190810160405280929190818152602001828054600181600116156101000203166002900480156117f65780601f106117cb576101008083540402835291602001916117f6565b820191906000526020600020905b8154815290600101906020018083116117d957829003601f168201915b50505050508152602001906001019061174e565b505050509050919050565b6060600360008673ffffffffffffffffffffffffffffffffffffffff1673ffffffffffffffffffffffffffffffffffffffff16815260200190815260200160002084846040516118669291906128cf565b9081526020016040518091039020805480602002602001604051908101604052809291908181526020016000905b82821015611a2f5783829060005260206000209060040201604051806080016040529081600082018054600181600116156101000203166002900480601f0160208091040260200160405190810160405280929190818152602001828054600181600116156101000203166002900480156119505780601f1061192557610100808354040283529160200191611950565b820191906000526020600020905b81548152906001019060200180831161193357829003601f168201915b5050505050815260200160018201548152602001600282018054600181600116156101000203166002900480601f0160208091040260200160405190810160405280929190818152602001828054600181600116156101000203166002900480156119fc5780601f106119d1576101008083540402835291602001916119fc565b820191906000526020600020905b8154815290600101906020018083116119df57829003601f168201915b505050505081526020016003820160009054906101000a900460ff16151515158152505081526020019060010190611894565b50505050905060008090505b8151811215611a955782828281518110611a5157fe5b6020026020010151602001511415611a88576001828281518110611a7157fe5b602002602001015160600190151590811515815250505b8080600101915050611a3b565b505050505050565b6001600260003373ffffffffffffffffffffffffffffffffffffffff1673ffffffffffffffffffffffffffffffffffffffff16815260200190815260200160002060008373ffffffffffffffffffffffffffffffffffffffff1673ffffffffffffffffffffffffffffffffffffffff16815260200190815260200160002060006101000a81548160ff021916908315150217905550600560003373ffffffffffffffffffffffffffffffffffffffff1673ffffffffffffffffffffffffffffffffffffffff16815260200190815260200160002060008273ffffffffffffffffffffffffffffffffffffffff1673ffffffffffffffffffffffffffffffffffffffff16815260200190815260200160002060009054906101000a900460ff1615611d405760008090505b600460003373ffffffffffffffffffffffffffffffffffffffff1673ffffffffffffffffffffffffffffffffffffffff16815260200190815260200160002080549050811015611d3a578173ffffffffffffffffffffffffffffffffffffffff16600460003373ffffffffffffffffffffffffffffffffffffffff1673ffffffffffffffffffffffffffffffffffffffff1681526020019081526020016000208281548110611c7257fe5b9060005260206000200160000160009054906101000a900473ffffffffffffffffffffffffffffffffffffffff1673ffffffffffffffffffffffffffffffffffffffff161415611d2d576001600460003373ffffffffffffffffffffffffffffffffffffffff1673ffffffffffffffffffffffffffffffffffffffff1681526020019081526020016000208281548110611d0857fe5b9060005260206000200160000160146101000a81548160ff0219169083151502179055505b8080600101915050611bc7565b50611ed4565b600460003373ffffffffffffffffffffffffffffffffffffffff1673ffffffffffffffffffffffffffffffffffffffff16815260200190815260200160002060405180604001604052808373ffffffffffffffffffffffffffffffffffffffff1681526020016001151581525090806001815401808255809150509060018203906000526020600020016000909192909190915060008201518160000160006101000a81548173ffffffffffffffffffffffffffffffffffffffff021916908373ffffffffffffffffffffffffffffffffffffffff16021790555060208201518160000160146101000a81548160ff0219169083151502179055505050506001600560003373ffffffffffffffffffffffffffffffffffffffff1673ffffffffffffffffffffffffffffffffffffffff16815260200190815260200160002060008373ffffffffffffffffffffffffffffffffffffffff1673ffffffffffffffffffffffffffffffffffffffff16815260200190815260200160002060006101000a81548160ff0219169083151502179055505b50565b828054600181600116156101000203166002900490600052602060002090601f016020900481019282601f10611f1857805160ff1916838001178555611f46565b82800160010185558215611f46579182015b82811115611f45578251825591602001919060010190611f2a565b5b509050611f5391906121af565b5090565b828054600181600116156101000203166002900490600052602060002090601f016020900481019282601f10611f9857803560ff1916838001178555611fc6565b82800160010185558215611fc6579182015b82811115611fc5578235825591602001919060010190611faa565b5b509050611fd391906121af565b5090565b828054600181600116156101000203166002900490600052602060002090601f016020900481019282601f10612010578054855561204d565b8280016001018555821561204d57600052602060002091601f016020900482015b8281111561204c578254825591600101919060010190612031565b5b50905061205a91906121af565b5090565b50805460018160011615610100020316600290046000825580601f1061208457506120a3565b601f0160209004906000526020600020908101906120a291906121af565b5b50565b8280548282559060005260206000209060040281019282156121745760005260206000209160040282015b8281111561217357828260008201816000019080546001816001161561010002031660029004612102929190611fd7565b506001820154816001015560028201816002019080546001816001161561010002031660029004612134929190611fd7565b506003820160009054906101000a900460ff168160030160006101000a81548160ff0219169083151502179055505050916004019190600401906120d1565b5b50905061218191906121d4565b5090565b60405180608001604052806060815260200160008152602001606081526020016000151581525090565b6121d191905b808211156121cd5760008160009055506001016121b5565b5090565b90565b61222c91905b8082111561222857600080820160006121f3919061205e565b600182016000905560028201600061220b919061205e565b6003820160006101000a81549060ff0219169055506004016121da565b5090565b90565b60008135905061223e81612bee565b92915050565b60008083601f84011261225657600080fd5b8235905067ffffffffffffffff81111561226f57600080fd5b60208301915083600182028301111561228757600080fd5b9250929050565b600082601f83011261229f57600080fd5b81356122b26122ad826129eb565b6129be565b915080825260208301602083018583830111156122ce57600080fd5b6122d9838284612b9b565b50505092915050565b6000813590506122f181612c05565b92915050565b60006020828403121561230957600080fd5b60006123178482850161222f565b91505092915050565b60008060008060006060868803121561233857600080fd5b60006123468882890161222f565b955050602086013567ffffffffffffffff81111561236357600080fd5b61236f88828901612244565b9450945050604086013567ffffffffffffffff81111561238e57600080fd5b61239a88828901612244565b92509250509295509295909350565b600080600080606085870312156123bf57600080fd5b60006123cd8782880161222f565b945050602085013567ffffffffffffffff8111156123ea57600080fd5b6123f687828801612244565b93509350506040612409878288016122e2565b91505092959194509250565b60008060006040848603121561242a57600080fd5b600084013567ffffffffffffffff81111561244457600080fd5b61245086828701612244565b935093505060206124638682870161222f565b9150509250925092565b60006020828403121561247f57600080fd5b600082013567ffffffffffffffff81111561249957600080fd5b6124a58482850161228e565b91505092915050565b60006124ba8383612506565b60208301905092915050565b60006124d28383612720565b905092915050565b60006124e68383612827565b60408301905092915050565b60006124fe8383612856565b905092915050565b61250f81612b53565b82525050565b600061252082612a6c565b61252a8185612ae2565b935061253583612a17565b8060005b8381101561256657815161254d88826124ae565b975061255883612aae565b925050600181019050612539565b5085935050505092915050565b600061257e82612a77565b6125888185612af3565b93508360208202850161259a85612a27565b8060005b858110156125d657848403895281516125b785826124c6565b94506125c283612abb565b925060208a0199505060018101905061259e565b50829750879550505050505092915050565b60006125f382612a82565b6125fd8185612b04565b935061260883612a37565b8060005b8381101561263957815161262088826124da565b975061262b83612ac8565b92505060018101905061260c565b5085935050505092915050565b600061265182612a8d565b61265b8185612b15565b93508360208202850161266d85612a47565b8060005b858110156126a9578484038952815161268a85826124f2565b945061269583612ad5565b925060208a01995050600181019050612671565b50829750879550505050505092915050565b6126c481612b65565b82525050565b60006126d68385612b48565b93506126e3838584612b9b565b82840190509392505050565b60006126fa82612aa3565b6127048185612b48565b9350612714818560208601612baa565b80840191505092915050565b600061272b82612a98565b6127358185612b26565b9350612745818560208601612baa565b61274e81612bdd565b840191505092915050565b600081546001811660008114612776576001811461279b576127df565b607f60028304166127878187612b48565b955060ff19831686528086019350506127df565b600282046127a98187612b48565b95506127b485612a57565b60005b828110156127d6578154818901526001820191506020810190506127b7565b82880195505050505b505092915050565b60006127f4601583612b37565b91507f596f7520646f6e277420686176652061636365737300000000000000000000006000830152602082019050919050565b60408201600082015161283d6000850182612506565b50602082015161285060208501826126bb565b50505050565b600060808301600083015184820360008601526128738282612720565b915050602083015161288860208601826128c0565b50604083015184820360408601526128a08282612720565b91505060608301516128b560608601826126bb565b508091505092915050565b6128c981612b91565b82525050565b60006128dc8284866126ca565b91508190509392505050565b60006128f482846126ef565b915081905092915050565b600061290b8284612759565b915081905092915050565b600060208201905081810360008301526129308184612515565b905092915050565b600060208201905081810360008301526129528184612573565b905092915050565b6000602082019050818103600083015261297481846125e8565b905092915050565b600060208201905081810360008301526129968184612646565b905092915050565b600060208201905081810360008301526129b7816127e7565b9050919050565b6000604051905081810181811067ffffffffffffffff821117156129e157600080fd5b8060405250919050565b600067ffffffffffffffff821115612a0257600080fd5b601f19601f8301169050602081019050919050565b6000819050602082019050919050565b6000819050602082019050919050565b6000819050602082019050919050565b6000819050602082019050919050565b60008190508160005260206000209050919050565b600081519050919050565b600081519050919050565b600081519050919050565b600081519050919050565b600081519050919050565b600081519050919050565b6000602082019050919050565b6000602082019050919050565b6000602082019050919050565b6000602082019050919050565b600082825260208201905092915050565b600082825260208201905092915050565b600082825260208201905092915050565b600082825260208201905092915050565b600082825260208201905092915050565b600082825260208201905092915050565b600081905092915050565b6000612b5e82612b71565b9050919050565b60008115159050919050565b600073ffffffffffffffffffffffffffffffffffffffff82169050919050565b6000819050919050565b82818337600083830152505050565b60005b83811015612bc8578082015181840152602081019050612bad565b83811115612bd7576000848401525b50505050565b6000601f19601f8301169050919050565b612bf781612b53565b8114612c0257600080fd5b50565b612c0e81612b91565b8114612c1957600080fd5b5056fea365627a7a72315820a4fcce7a7f9d07cd4069a8881795cadb0454df11ceda7f5caf3ed0884f38b84a6c6578706572696d656e74616cf564736f6c63430005100040",
  "source": "// SPDX-License-Identifier: GPL-3.0\r\n\r\npragma solidity >=0.4.21 <0.6.0;\r\n\r\npragma experimental ABIEncoderV2;\r\ncontract FileAccess {\r\n\r\n struct File{\r\n    string url;\r\n    uint version;\r\n    string name;\r\n    bool isStarred;\r\n }\r\n  \r\n  struct Access{\r\n     address user; \r\n     bool access; \r\n  }\r\n  mapping(address=>string[]) fileUrls;\r\n  mapping(address=>string[]) fileNames;\r\n  mapping(address=>mapping(address=>bool)) trackOwner;\r\n  mapping(address=>mapping(string=>File[])) filesMapping;\r\n  mapping(address=>Access[]) accessList;\r\n  mapping(address=>mapping(address=>bool)) lastState;\r\n  mapping(string=>address[]) fileLogs;\r\n\r\n  function log(string calldata file, address _user) external{\r\n      fileLogs[file].push(_user);\r\n  }\r\n\r\n  function getLogs(string memory file) public view returns(address[] memory){\r\n      return fileLogs[file];\r\n  }\r\n\r\n  function add(address _user,string calldata url, string calldata name) external {\r\n      if(filesMapping[_user][name].length > 0){\r\n          uint version = filesMapping[_user][name].length + 1;\r\n          filesMapping[_user][name].push(File(url, version, name, false));\r\n      }else{\r\n        filesMapping[_user][name].push(File(url, 1, name, false));\r\n      }\r\n        fileUrls[_user].push(url);\r\n\r\n        uint flag=0;\r\n\r\n        for(uint i=0; i<fileNames[_user].length;i++){\r\n            if(keccak256(abi.encodePacked(fileNames[_user][i]))==keccak256(abi.encodePacked(name))){\r\n                flag=1;\r\n                break;\r\n            }\r\n        }\r\n        if(flag==0)\r\n             fileNames[_user].push(name);\r\n  }\r\n\r\n  function starFile(address _user, string calldata fileName, uint version) external view {\r\n         File[] memory fileList = filesMapping[_user][fileName];\r\n           for (int i = 0; i < int(fileList.length); i++) {\r\n              if (fileList[uint(i)].version == version) {\r\n                  fileList[uint(i)].isStarred=true;\r\n              }\r\n           }\r\n  }\r\n\r\n  function unStarFile(address _user, string calldata fileName, uint version) external view{\r\n          File[] memory fileList = filesMapping[_user][fileName];\r\n           for (int i = 0; i < int(fileList.length); i++) {\r\n              if (fileList[uint(i)].version == version) {\r\n                  fileList[uint(i)].isStarred=false;\r\n              }\r\n           }\r\n  }\r\n\r\n  function getFilesForUser(address _user) public view returns(File[]  memory){\r\n      File[] memory fileList = new File[](20);\r\n      uint index=0;\r\n\r\n      for(uint i=0; i<fileNames[_user].length;i++){\r\n          string memory name = fileNames[_user][i];\r\n          File[] memory tempList = filesMapping[_user][name];\r\n          for(uint j=0; j<tempList.length;j++){\r\n            fileList[index]= tempList[j];\r\n            index=index+1;\r\n          }\r\n      }\r\n\r\n    return fileList;\r\n  }\r\n\r\n   function deleteFile(address _user, string calldata name, uint version) external {\r\n         File[] storage fileList = filesMapping[_user][name];\r\n             for (int i = int(fileList.length) - 1; i >= 0; i--) {\r\n              if (fileList[uint(i)].version == version) {\r\n                 fileList[uint(i)] = fileList[fileList.length - 1];\r\n                 fileList.pop();\r\n             }\r\n         }\r\n         filesMapping[_user][name]=fileList;\r\n         if(fileList.length==0){\r\n             fileNames[_user].pop();\r\n         }\r\n   }\r\n\r\n  function allow(address user) external {\r\n      trackOwner[msg.sender][user]=true; \r\n      if(lastState[msg.sender][user]){\r\n         for(uint i=0;i<accessList[msg.sender].length;i++){\r\n             if(accessList[msg.sender][i].user==user){\r\n                  accessList[msg.sender][i].access=true; \r\n             }\r\n         }\r\n      }else{\r\n          accessList[msg.sender].push(Access(user,true));  \r\n          lastState[msg.sender][user]=true;  \r\n      }\r\n    \r\n  }\r\n  function disallow(address user) public{\r\n      trackOwner[msg.sender][user]=false;\r\n      for(uint i=0;i<accessList[msg.sender].length;i++){\r\n          if(accessList[msg.sender][i].user==user){ \r\n              accessList[msg.sender][i].access=false;  \r\n          }\r\n      }\r\n  }\r\n\r\n  function display(address _user) external view returns(string[] memory){\r\n      require(_user==msg.sender || trackOwner[_user][msg.sender],\"You don't have access\");\r\n      return fileUrls[_user];\r\n  }\r\n\r\n  function shareAccess() public view returns(Access[] memory){\r\n      return accessList[msg.sender];\r\n  }\r\n}",
  "sourcePath": "C:\\Users\\atharvakaranje\\Desktop\\CPSC 559 Final Project\\src\\contracts\\FileAccess.sol",
  "compiler": {
    "name": "solc",
    "version": "0.5.16+commit.9c3226ce.Emscripten.clang"
  },
  "schemaVersion": "3.4.11",
  "updatedAt": "2023-05-04T23:53:50.734Z",
  "devdoc": {
    "methods": {}
  },
  "userdoc": {
    "methods": {}
  }
}