{
  "contractName": "UserAuthentication",
  "abi": [
    {
      "constant": false,
      "inputs": [
        {
          "internalType": "address",
          "name": "_user",
          "type": "address"
        },
        {
          "internalType": "string",
          "name": "pass",
          "type": "string"
        }
      ],
      "name": "addUser",
      "outputs": [],
      "payable": false,
      "stateMutability": "nonpayable",
      "type": "function"
    },
    {
      "constant": true,
      "inputs": [
        {
          "internalType": "address",
          "name": "_user",
          "type": "address"
        }
      ],
      "name": "userExists",
      "outputs": [
        {
          "internalType": "bool",
          "name": "",
          "type": "bool"
        }
      ],
      "payable": false,
      "stateMutability": "view",
      "type": "function"
    },
    {
      "constant": true,
      "inputs": [
        {
          "internalType": "address",
          "name": "_user",
          "type": "address"
        },
        {
          "internalType": "string",
          "name": "pass",
          "type": "string"
        }
      ],
      "name": "checkPass",
      "outputs": [
        {
          "internalType": "bool",
          "name": "",
          "type": "bool"
        }
      ],
      "payable": false,
      "stateMutability": "view",
      "type": "function"
    }
  ],
  "bytecode": "0x608060405234801561001057600080fd5b5061050e806100206000396000f3fe608060405234801561001057600080fd5b50600436106100415760003560e01c80630e666e49146100465780634a346238146100a25780634b68d43114610195575b600080fd5b6100886004803603602081101561005c57600080fd5b81019080803573ffffffffffffffffffffffffffffffffffffffff16906020019092919050505061022e565b604051808215151515815260200191505060405180910390f35b61017b600480360360408110156100b857600080fd5b81019080803573ffffffffffffffffffffffffffffffffffffffff169060200190929190803590602001906401000000008111156100f557600080fd5b82018360208201111561010757600080fd5b8035906020019184600183028401116401000000008311171561012957600080fd5b91908080601f016020809104026020016040519081016040528093929190818152602001838380828437600081840152601f19601f82011690508083019250505050505050919291929050505061029c565b604051808215151515815260200191505060405180910390f35b61022c600480360360408110156101ab57600080fd5b81019080803573ffffffffffffffffffffffffffffffffffffffff169060200190929190803590602001906401000000008111156101e857600080fd5b8201836020820111156101fa57600080fd5b8035906020019184600183028401116401000000008311171561021c57600080fd5b90919293919293905050506103e1565b005b6000806000808473ffffffffffffffffffffffffffffffffffffffff1673ffffffffffffffffffffffffffffffffffffffff168152602001908152602001600020805460018160011615610100020316600290049050146102925760019050610297565b600090505b919050565b6000816040516020018082805190602001908083835b602083106102d557805182526020820191506020810190506020830392506102b2565b6001836020036101000a038019825116818451168082178552505050505050905001915050604051602081830303815290604052805190602001206000808573ffffffffffffffffffffffffffffffffffffffff1673ffffffffffffffffffffffffffffffffffffffff16815260200190815260200160002060405160200180828054600181600116156101000203166002900480156103ac5780601f1061038a5761010080835404028352918201916103ac565b820191906000526020600020905b815481529060010190602001808311610398575b50509150506040516020818303038152906040528051906020012014156103d657600190506103db565b600090505b92915050565b81816000808673ffffffffffffffffffffffffffffffffffffffff1673ffffffffffffffffffffffffffffffffffffffff168152602001908152602001600020919061042e929190610434565b50505050565b828054600181600116156101000203166002900490600052602060002090601f016020900481019282601f1061047557803560ff19168380011785556104a3565b828001600101855582156104a3579182015b828111156104a2578235825591602001919060010190610487565b5b5090506104b091906104b4565b5090565b6104d691905b808211156104d25760008160009055506001016104ba565b5090565b9056fea265627a7a72315820b632ef3b9f7b35b6fe07f88e7843387926e15652b343fc8997aff0d95fa9c35a64736f6c63430005100032",
  "source": "// SPDX-License-Identifier: GPL-3.0\r\n\r\npragma solidity >=0.4.21 <0.6.0;\r\n\r\ncontract UserAuthentication{\r\n\r\n    mapping(address=>string) userPassMappings;\r\n\r\n    function addUser(address _user,string calldata pass) external {\r\n        userPassMappings[_user]=pass;\r\n    }\r\n\r\n    function userExists(address _user) public view returns(bool) {\r\n       if(bytes(userPassMappings[_user]).length != 0 )\r\n            return true;\r\n        return false;\r\n    }\r\n\r\n    function checkPass(address _user, string memory pass) public view returns(bool) {\r\n        if(keccak256(abi.encodePacked(userPassMappings[_user])) == keccak256(abi.encodePacked(pass)))\r\n            return true;\r\n        return false;\r\n    }\r\n\r\n}\r\n\r\n",
  "sourcePath": "C:\\Users\\atharvakaranje\\Desktop\\CPSC 559 Final Project\\src\\contracts\\UserAuthentication.sol",
  "compiler": {
    "name": "solc",
    "version": "0.5.16+commit.9c3226ce.Emscripten.clang"
  },
  "schemaVersion": "3.4.11",
  "updatedAt": "2023-05-06T23:58:19.509Z",
  "networkType": "ethereum",
  "devdoc": {
    "methods": {}
  },
  "userdoc": {
    "methods": {}
  }
}