{
  "contractName": "UserAuthentication",
  "abi": [
    {
      "constant": false,
      "inputs": [
        {
          "internalType": "address",
          "name": "_user",
          "type": "address"
        },
        {
          "internalType": "string",
          "name": "pass",
          "type": "string"
        }
      ],
      "name": "addUser",
      "outputs": [],
      "payable": false,
      "stateMutability": "nonpayable",
      "type": "function"
    },
    {
      "constant": true,
      "inputs": [
        {
          "internalType": "address",
          "name": "_user",
          "type": "address"
        }
      ],
      "name": "userExists",
      "outputs": [
        {
          "internalType": "string",
          "name": "",
          "type": "string"
        }
      ],
      "payable": false,
      "stateMutability": "view",
      "type": "function"
    },
    {
      "constant": true,
      "inputs": [
        {
          "internalType": "address",
          "name": "_user",
          "type": "address"
        },
        {
          "internalType": "string",
          "name": "pass",
          "type": "string"
        }
      ],
      "name": "checkPass",
      "outputs": [
        {
          "internalType": "bool",
          "name": "",
          "type": "bool"
        }
      ],
      "payable": false,
      "stateMutability": "view",
      "type": "function"
    }
  ],
  "bytecode": "0x608060405234801561001057600080fd5b506105e1806100206000396000f3fe608060405234801561001057600080fd5b50600436106100415760003560e01c80630e666e49146100465780634a346238146101035780634b68d431146101f6575b600080fd5b6100886004803603602081101561005c57600080fd5b81019080803573ffffffffffffffffffffffffffffffffffffffff16906020019092919050505061028f565b6040518080602001828103825283818151815260200191508051906020019080838360005b838110156100c85780820151818401526020810190506100ad565b50505050905090810190601f1680156100f55780820380516001836020036101000a031916815260200191505b509250505060405180910390f35b6101dc6004803603604081101561011957600080fd5b81019080803573ffffffffffffffffffffffffffffffffffffffff1690602001909291908035906020019064010000000081111561015657600080fd5b82018360208201111561016857600080fd5b8035906020019184600183028401116401000000008311171561018a57600080fd5b91908080601f016020809104026020016040519081016040528093929190818152602001838380828437600081840152601f19601f82011690508083019250505050505050919291929050505061036f565b604051808215151515815260200191505060405180910390f35b61028d6004803603604081101561020c57600080fd5b81019080803573ffffffffffffffffffffffffffffffffffffffff1690602001909291908035906020019064010000000081111561024957600080fd5b82018360208201111561025b57600080fd5b8035906020019184600183028401116401000000008311171561027d57600080fd5b90919293919293905050506104b4565b005b60606000808373ffffffffffffffffffffffffffffffffffffffff1673ffffffffffffffffffffffffffffffffffffffff1681526020019081526020016000208054600181600116156101000203166002900480601f0160208091040260200160405190810160405280929190818152602001828054600181600116156101000203166002900480156103635780601f1061033857610100808354040283529160200191610363565b820191906000526020600020905b81548152906001019060200180831161034657829003601f168201915b50505050509050919050565b6000816040516020018082805190602001908083835b602083106103a85780518252602082019150602081019050602083039250610385565b6001836020036101000a038019825116818451168082178552505050505050905001915050604051602081830303815290604052805190602001206000808573ffffffffffffffffffffffffffffffffffffffff1673ffffffffffffffffffffffffffffffffffffffff168152602001908152602001600020604051602001808280546001816001161561010002031660029004801561047f5780601f1061045d57610100808354040283529182019161047f565b820191906000526020600020905b81548152906001019060200180831161046b575b50509150506040516020818303038152906040528051906020012014156104a957600190506104ae565b600090505b92915050565b81816000808673ffffffffffffffffffffffffffffffffffffffff1673ffffffffffffffffffffffffffffffffffffffff1681526020019081526020016000209190610501929190610507565b50505050565b828054600181600116156101000203166002900490600052602060002090601f016020900481019282601f1061054857803560ff1916838001178555610576565b82800160010185558215610576579182015b8281111561057557823582559160200191906001019061055a565b5b5090506105839190610587565b5090565b6105a991905b808211156105a557600081600090555060010161058d565b5090565b9056fea265627a7a72315820d193ee9c684080e599a238f632b5bb125cf4833fc1bfd759f7bc9131fb8757f064736f6c63430005100032",
  "source": "// SPDX-License-Identifier: GPL-3.0\r\n\r\npragma solidity >=0.4.21 <0.6.0;\r\n\r\ncontract UserAuthentication{\r\n\r\n    mapping(address=>string) userPassMappings;\r\n\r\n    function addUser(address _user,string calldata pass) external {\r\n        userPassMappings[_user]=pass;\r\n    }\r\n\r\n    function userExists(address _user) public view returns(string memory) {\r\n       return userPassMappings[_user];\r\n    }\r\n\r\n    function checkPass(address _user, string memory pass) public view returns(bool) {\r\n        if(keccak256(abi.encodePacked(userPassMappings[_user])) == keccak256(abi.encodePacked(pass)))\r\n            return true;\r\n        return false;\r\n    }\r\n\r\n}\r\n",
  "sourcePath": "C:\\Users\\atharvakaranje\\Desktop\\CPSC 559 Final Project\\src\\contracts\\UserAuthentication.sol",
  "compiler": {
    "name": "solc",
    "version": "0.5.16+commit.9c3226ce.Emscripten.clang"
  },
  "schemaVersion": "3.4.11",
  "updatedAt": "2023-04-30T06:25:40.568Z",
  "devdoc": {
    "methods": {}
  },
  "userdoc": {
    "methods": {}
  }
}